:100000000C9404030C9421030C9421030C942103FD
:100010000C9421030C9421030C9421030C942103D0
:100020000C9421030C9421030C9454140C94291364
:100030000C9490210C9421030C9421030C94210323
:100040000C9421030C9421030C9421030C942103A0
:100050000C9421030C94F2200C9421030C942103A2
:100060000C9421030C9421030C9421030C94210380
:100070000C9421030C9421030C9421030C94210370
:100080000C9421030C9421030C9421030C94210360
:100090000C9421030C9421030C9421030C94210350
:1000A0000C9421030C9421030C9421035F06610638
:1000B0006C0663066506670669066B066E067006C3
:1000C00072067D067406760678067A067C067F063A
:1000D0003308330871087108AD08CD089F0AF80A83
:1000E0000F09F80AFC09FC09090A090A090A090AA0
:1000F000090A090A090A090A090A090A090A090A68
:10010000090A090A090A090A1A0A420A470A4E0A8A
:10011000660A4B0C4E0C510C540C570C5A0C5D0CCF
:100120006C0F710F7B0F6F0F740F790F770FBF116B
:10013000D911051246129112941299129C129F1213
:10014000A212A512A812AB12AE12B112B412B712BB
:10015000BC12C112C412C712B526DC267C28DC26CC
:100160007C28242747277C28452858280F290F2931
:100170002229222918292229222922290F290F2957
:100180001D29222922291D292E004C002A00E100C8
:10019000354100001E00140004001D6134004D00B4
:1001A0001F001A0016001B00E1042A0020000800AE
:1001B0000700060050002C0021001500090019005E
:1001C0004F004A00220017000A0005000000656485
:1001D000500001530000000F0000E3004F000153E6
:1001E000000000070000E20023001C000B001100CB
:1001F00000002961240018000D00100052004B007F
:1002000025000C000E0036005100280026001200C8
:100210000F0037002F002B002700130033423871E6
:1002200030004E002D0031003468E500015100001F
:100230002900010001000100010000003A001E0237
:10024000200222020100FD5C3B001F02210223026A
:100250000100C95C3C002F0226022F000100CA5C8D
:100260003D003002270230000100FC5C3E003102FC
:10027000350035020000C35C0100010000000100F0
:100280000000FB5C01000100000001000000C25CF6
:100290003F005200510024020000F95C400024009D
:1002A00021001E00270001004100250022001F0040
:1002B0002700C55C42002600230020006300C65CC6
:1002C000430025022E0231002E00010044004500AB
:1002D0000100010001000000010001000100010017
:1002E0000100000001000100010001000100010007
:1002F00001000100F2000100010001000100F00016
:10030000F1000100F400010001000100F300010010
:10031000F5000100010001000100010000000100E2
:1003200001000100000001000000010001000100C7
:1003300000000100000001000100010001000100B7
:10034000000001000100010001000100A9000100FE
:10035000010001000100AC00AA00B600010001008C
:100360000100AB00A8000100010001000100010034
:100370000100010001000100AE00010001000000C9
:100380000000000000000000000001010101010167
:10039000010101020202020202020203030303033B
:1003A0000303040404040405050505050606060602
:1003B0000607070707080808080909090A0A0A0BB7
:1003C0000B0B0C0C0C0D0D0D0E0E0E0F0F10101054
:1003D00011111212131314141515161617171818D5
:1003E00019191A1A1B1C1C1D1D1E1F1F202121223A
:1003F000232324252526272828292A2B2C2C2D2E7B
:100400002F30313132333435363738393A3B3C3D91
:100410003E3F404142434445464748494B4C4D4E80
:100420004F50525354555758595A5C5D5E60616342
:10043000646567686A6B6C6E6F7172747677797ACF
:100440007C7D7F8182848687898B8D8E9092949526
:1004500097999B9D9FA1A2A4A6A8AAACAEB0B2B446
:10046000B6B9BBBDBFC1C3C5C8CACCCED0D3D5D722
:10047000DADCDEE1E3E6E8EAEDEFF2F4F7F9FCFFBF
:1004800005010902A10185020901A100050919015F
:100490002905150025019505750181029501750352
:1004A00081010501093009311581257F9502750803
:1004B000810609381581257F950175088106050C8F
:1004C0000A38021581257F950175088106C0C0058F
:1004D000010980A10185031601002603001A81008D
:1004E0002A8300751095018100C0050C0901A10146
:1004F0008504160100269C021A01002A9C02751030
:1005000095018100C005010906A1018505050719AE
:10051000E029E715002501950875018102050819F4
:100520000129059505750191029501750391010554
:1005300007190029EF1500250195F075018102C00A
:1005400005010906A101050719E029E715002501A4
:100550009508750181029501750881010508190149
:10056000290595057501910295017503910105070E
:10057000190029FF150026FF00950675088100C0A7
:1005800009023B00020100A0FA0904000001030176
:100590000100092111010001224000070581030823
:1005A000000A0904010001030000000921110100F3
:1005B0000122C0000705820320000A120110010079
:1005C000000008EDFE0713010001020301040330DF
:1005D00000000016034500720067006F0044006FC2
:1005E000007800200045005A000000160345007204
:1005F0000067006F0044006F007800200045005A3B
:10060000000000040309040011241FBECFEFDAE04C
:10061000DEBFCDBF13E0A0E0B1E0E2EBFEE502C03B
:1006200005900D92AE36B107D9F726E0AEE6B3E0FD
:1006300001C01D92A231B207E1F70E94A0150C94EF
:10064000572F0C9400008F929F92AF92BF92CF923F
:10065000DF92EF92FF920F931F93CF93DF93CDB76B
:10066000DEB728970FB6F894DEBF0FBECDBFFC01F2
:10067000F080118183819481892B11F40C94DB0B20
:100680001F3F29F40FEFF01611F40C94DB0B6F01F0
:1006900085E0DE01119601900D928A95E1F7F60151
:1006A000228189819A81222349F00E94E222082F27
:1006B000682F89819A810E945B2303C00E942E23A8
:1006C000082F26E0129FF001112434E5039FE00D6E
:1006D000F11D1124EF0DF11DEE0FFF1FE857FE4F26
:1006E00005911491F6018281073FFCE51F0759F03F
:1006F000083F2CE5120709F446C0023C3CE513070D
:1007000009F09CC062C0882309F4E9C0909181037C
:1007100081E0890F8770987F853020F4892B809342
:10072000810302C090938103809181038770EFEF72
:100730008E9FC0011124959587959595879599274A
:10074000909389008093880090938B0080938A0017
:1007500090938D0080938C0040918103509182038F
:1007600060918303709184038FE090E00E94EA2DF2
:100770006091BF057091C0058091C1059091C2053F
:100780000E940D0FACC0882309F4A9C08091810399
:1007900083FB222720F991E0922790FB83F9809335
:1007A0008103992329F040E060E080E00E94CE1CA4
:1007B000409181035091820360918303709184037F
:1007C0008FE090E00E94EA2D8AC0882311F40C94F7
:1007D000DB0B90911701809181039F3F59F4109298
:1007E00017018F7E8093810340E060E080E00E94EB
:1007F000CE1C06C09FEF9093170180618093810308
:10080000409181035091820360918303709184032E
:100810008FE090E028960FB6F894DEBF0FBECDBFF4
:10082000DF91CF911F910F91FF90EF90DF90CF90CC
:10083000BF90AF909F908F900C94EA2D0B3FFCE5FA
:100840001F07A9F058F4093F3CE5130709F49EC0BF
:100850000A3F9CE5190709F47CC041C00C3FECE558
:100860001E0769F00D3FFCE51F0761F138C08823C2
:1008700009F4A1C781E00E94DA1C8CEA2AC088230F
:1008800009F499C781E00E94DA1C86E58093080686
:100890008FEF8093090680E880930A0628960FB6AA
:1008A000F894DEBF0FBECDBFDF91CF911F910F91A6
:1008B000FF90EF90DF90CF90BF90AF909F908F9080
:1008C0000C94D21C882309F476C781E00E94DA1CBC
:1008D0008BE1809308068FEF80930906DDCFF60148
:1008E0008281882381F0033E2CE5120709F494C02D
:1008F00008F087C0013E8CE5180709F07BC0109214
:100900007D030E94441E17FFFBC0F6018281811106
:1009100089C00A3CFCE51F0709F447C108F453C12C
:10092000013D9CE5190709F4DEC250F1053DFCE5E7
:100930001F0709F413C308F409C70D3D9CE5190707
:1009400009F41DC30E3DECE51E0709F021C3F601B5
:100950008281882309F42FC728960FB6F894DEBF4A
:100960000FBECDBFDF91CF911F910F91FF90EF9000
:10097000DF90CF90BF90AF909F908F900C942722E4
:100980000D3CFCE51F0739F4F6018281882309F448
:1009900012C781E01BC00E3C2CE5120708F4B3C25D
:1009A0000F3C9CE5190709F4B1C608F0BFC6F60173
:1009B0008281882309F4FFC6809107068695869573
:1009C000825C8F73833008F438C182E028960FB6BA
:1009D000F894DEBF0FBECDBFDF91CF911F910F9175
:1009E000FF90EF90DF90CF90BF90AF909F908F904F
:1009F0000C94DA1C023E9CE5190709F084CF81E0D3
:100A00000EC0043EECE51E0749F0053EFCE51F075D
:100A100009F079CF84E003C082E001C083E08093D5
:100A20007D036FCF8091D00580936E031092D00527
:100A300080917D03813071F048F08230D1F08430B4
:100A4000F1F486EE0E949A2B88E117C082EE0E9494
:100A5000AD2B15C08EEF9BE00E948D2588E10E9492
:100A6000AD2B88E10E94332B8EEE9BE00E948D25FA
:100A700006C082EE0E94AD2B87E50E949A2B8FE381
:100A80009CE90197F1F700C000007801E894F7F8BD
:100A90005CE0A52EB12CC7010A2C02C09695879563
:100AA0000A94E2F7282F2F7041F0822F90E02A302D
:100AB00010F44D9604C0069702C087E290E00E94B1
:100AC0009A2B94E0A91AB108ECEFAE16EFEFBE0630
:100AD00011F780917D03813039F040F0823031F0A0
:100AE000843051F488E206C08CE204C082EE0E9499
:100AF000332B02C00E949A2B80916E038093D00505
:100B0000003FFCE51F07B1F180F4083D3CE5130709
:100B1000C9F0093D8CE51807C9F1073D9CE51907A7
:100B2000C1F526E241EE61EE10C0023FECE51E0782
:100B300049F120F1033F2CE5120759F527E245EE74
:100B400066EE03C027E245EE65EEC60128960FB6B5
:100B5000F894DEBF0FBECDBFDF91CF911F910F91F3
:100B6000FF90EF90DF90CF90BF90AF909F908F90CD
:100B70000C946D1E26E241EE60EEE7CF27E245EED3
:100B800064EEE3CF26E241EE62EEDFCF28E241E001
:100B9000DBCFF6018281882319F010926F03B9CE62
:100BA0000A3CFCE51F0709F072C1F6018281882327
:100BB00009F401C620910A0630E1231B08F420E065
:100BC00020930A066BCE033C3CE51307E9F4F601DB
:100BD0008281882309F4EFC58091D005827269F182
:100BE00028960FB6F894DEBF0FBECDBFDF91CF9130
:100BF0001F910F91FF90EF90DF90CF90BF90AF903B
:100C00009F908F900C94E61C043C8CE5180748F1EB
:100C1000063C9CE5190709F44AC108F039C5043CB3
:100C2000FCE51F0709F04EC1F6018281882309F413
:100C3000C2C58091D005827299F228960FB6F894B9
:100C4000DEBF0FBECDBFDF91CF911F910F91FF90FF
:100C5000EF90DF90CF90BF90AF909F908F900C94CB
:100C6000FC1C05319CE5190708F0C6C00230ECE514
:100C70001E0708F469C0F6018281882309F493C134
:100C80000E941C22811102C00E94272284E090E071
:100C90000E94B42D90E09093940380939303F80105
:100CA000E350FC45E231F10530F4EA5AFF4F809100
:100CB00093030C94242E80919303816027C082605B
:100CC00025C0846023C0806121C080621FC0806411
:100CD0001DC080681BC08460886018C08E7F16C0ED
:100CE0008D7F14C08B7F12C08F7E10C08F7D0EC091
:100CF0008F7B0CC08F770AC08B7F877F07C087FBF5
:100D0000222720F991E0922790FB87F980939303A3
:100D10006091930384E090E00E94D82D1092D0055A
:100D200028960FB6F894DEBF0FBECDBFDF91CF91EE
:100D30001F910F91FF90EF90DF90CF90BF90AF90F9
:100D40009F908F900C940B2B0115FCE51F0709F069
:100D500044C0F6018281882309F42DC51092D00584
:100D60000E940B2BFFEF04E31CE0F1500040104009
:100D7000E1F700C00000F89481E08093E00080E299
:100D80008093D8001092C9008FE19EE40197F1F79B
:100D900000C000001DBA109268001CBC10BE1FBA33
:100DA00010927A0010926E0010926F0010927100F3
:100DB000109272001092C9001092BC0014B817B8BB
:100DC0001AB81DB810BA1092BC0015B818B81BB8E4
:100DD0001EB811BA0C94003FEEC401301C4509F056
:100DE000E2C0F6018281882309F4E5C48091B00352
:100DF00081608093B003DFC406313CE51307A9F599
:100E00009091D005F6018281882381F09A7A81E061
:100E100009F480E080937003811102C069E201C08F
:100E200065E380E395E00E94E4210BC080917003AC
:100E3000811102C069E201C065E380E395E00E9490
:100E4000B92128960FB6F894DEBF0FBECDBFDF9153
:100E5000CF911F910F91FF90EF90DF90CF90BF90B7
:100E6000AF909F908F900C949C22023C1C4509F0FF
:100E70009AC0F6018281882309F49DC490910706E7
:100E800081E08927809307061092080107CD0B3C6B
:100E90002CE5120720F5033C3CE5130709F497CE37
:100EA00008F490C0063C9CE5190709F0E3C3F6017D
:100EB0008281882309F47FC480910806885080933A
:100EC0000806ECCC053C1C4509F06DC0F60182819A
:100ED000882309F470C480910806885FF0CF013D33
:100EE0009CE5190791F5F6018281882309F463C412
:100EF00080910706869586958F5C8F73853008F400
:100F00009CCE8FE063CD0B3C3CE5130761F4F6010A
:100F10008281882309F44FC420910B0630E1230F0E
:100F200008F42FEF0FC00C3C1C4509F03CC0F60143
:100F30008281882309F43FC420910B0630E1231BF2
:100F400008F420E020930B06A9CC023DECE51E0737
:100F500008F4CBC3053DFCE51F0739F4F601828197
:100F6000882309F428C483E231CD063D2CE512071D
:100F700008F4ECC30D3D9CE5190709F012C4F60115
:100F80008281882309F417C482E08093BF0313C4CD
:100F90000C3D1C4541F4F6018281882309F40BC401
:100FA0001092BF0308C4F601828100811181882359
:100FB000F9F0C8010E94E222F82E682FC8010E94B1
:100FC0005B231AC005319CE5190708F049C30230BC
:100FD000ECE51E0708F04FCE0115FCE51F0709F4EC
:100FE000B8CE01301C4509F4FCCEF6010081118118
:100FF000C8010E942E23F82EB8018F2D0E94B00C3C
:10100000182F382FF601258122952F7002810111AA
:101010001092C5058091C3058770A9F0002399F04F
:1010200080E2810F883078F082E02F8338879E83BA
:101030000E94BC238091C3058770EE24E3942F8126
:1010400038859E818111E12CA92EA2944FE0A42223
:10105000B12CFCE0AF16B10408F0CAC2F501E859A2
:10106000FF4F0C94242E892F807F9F70F92E8823A8
:1010700019F0F29480EFF8220023B9F0FF2009F470
:1010800048C280E2810F883010F0311106C0909183
:10109000D005F92AF092D00505C09091C505F92A2E
:1010A000F092C5050E949C2234C2812F38870E948D
:1010B000332B3885FF2009F49BC2105EF094183062
:1010C00010F0311106C09091D005F922F092D005B0
:1010D00005C09091C505F922F092C5050E949C2299
:1010E00087C2492F407F892F8F70403211F082953F
:1010F000807F332319F03130E9F025C0002381F0DF
:101100003091C605222351F0213041F4982F932BC2
:10111000391709F46DC29093C6056AC2832B81C149
:10112000222319F0213009F463C28E830E94962293
:101130008E817DC1002321F0223008F059C271C197
:10114000211156C274C1002321F0222309F469C180
:10115000E0C1222309F46BC1EEC1292F2695269503
:10116000237030E02115310521F02130310559F08F
:101170003FC2002319F0812F937002C080E090E0FD
:101180000E94AC1C43C2002319F0812F937002C04F
:1011900080E090E00E94961C39C20023F9F0153FD0
:1011A00051F0163F71F0143FA9F4809171039091B2
:1011B000720381600BC08091710390917203826011
:1011C00005C08091710390917203846090937203C3
:1011D00080937103812F0E948A201EC0153F51F019
:1011E000163F71F0143FA9F480917103909172033E
:1011F0008E7F0BC080917103909172038D7F05C02B
:1012000080917103909172038B7F9093720380930E
:101210007103812F0E94C01F0E947A21F7C1892F7C
:10122000837009F071C00111EFC1812F82958695FD
:101230008770880F880F412F4F7050E060E070E09A
:101240004A015B01082E04C0880C991CAA1CBB1C17
:101250000A94D2F714FF12C00FE010E020E030E053
:1012600004C0000F111F221F331F8A95D2F7B90146
:10127000A801409550956095709503C040E050E0FE
:10128000BA01969596959370892F90E082309105DA
:10129000E9F08330910579F10091C7051091C805F7
:1012A0002091C9053091CA05019759F0482959295B
:1012B0006A297B29CB01BA016023712382239323FE
:1012C00020C0802A912AA22AB32A15C04829592968
:1012D0006A297B298091C7059091C805A091C9050D
:1012E000B091CA058A019B01082719272A273B27A5
:1012F000C901B80106C0CB01BA01682979298A2938
:101300009B290E94F62380C1002319F0892F817048
:1013100001C08695882309F477C1812F829586952F
:101320008770880F880F412F4F7050E060E070E0A9
:101330004A015B01082E04C0880C991CAA1CBB1C26
:101340000A94D2F714FF12C00FE010E020E030E062
:1013500004C0000F111F221F331F8A95D2F7B90155
:10136000A801409550956095709503C040E050E00D
:10137000BA01969596959370892F90E082309105E9
:10138000E9F08330910579F10091BF051091C00516
:101390002091C1053091C205019759F0482959297A
:1013A0006A297B29CB01BA0160237123822393230D
:1013B00020C0802A912AA22AB32A15C04829592977
:1013C0006A297B298091BF059091C005A091C10534
:1013D000B091C2058A019B01082719272A273B27BC
:1013E000C901B80106C0CB01BA01682979298A2947
:1013F0009B290E948B2308C1412F50E0FA01E05E37
:10140000F109E531F10508F07FC0EC58FF4F0C946D
:10141000242E1F70892F8F71002331F00E94D52355
:10142000812F0E94292BE4C00E949723812F0E94C4
:101430001E2BDEC0002311F12111DAC0292F2F71DC
:1014400081E090E0A0E0B0E0AC01BD0104C0440F39
:10145000551F661F771F2A95D2F78091BF0590917F
:10146000C005A091C105B091C2058A019B01082762
:1014700019272A273B27C901B80125C0223008F0C7
:10148000B7C0DCCF002329F0892F8F712EC0002335
:10149000D9F3892F8F710E949723AAC0002381F06E
:1014A000292F2F7181E090E0A0E0B0E0BC01CD01D8
:1014B00004C0660F771F881F991F2A95D2F703C0B3
:1014C00060E070E0CB010E948B2392C0002381F08A
:1014D000192F1F71812F0E94D52328E0129FC00170
:1014E000112483608093C305812F0E94D52380C07F
:1014F00081E02F830E94BC232F81223008F478C022
:1015000082E00E94BC2374C0002339F0222309F436
:10151000BBCF812F0E94AD2B6BC0222309F4B9CF22
:10152000193349F43FEF87EE93E03150804090400B
:10153000E1F700C00000812F0E94332B59C0323FD9
:10154000B1F028F4303F49F0313FF9F028C0343F82
:10155000B9F058F0353F71F022C0002309F456C0AD
:1015600090910D0681E0892708C081E0082700934B
:101570000D064CC001114AC081E080930D0646C0A3
:10158000011144C010920D0641C0002329F0809142
:101590000C06882329F329C0222311F337C0809138
:1015A0000C062223C1F0882341F090910D0681E0C2
:1015B000892780930D0610920C06812F002319F0C5
:1015C0000E94AD2B23C00E94332B86E0F6011192BE
:1015D0008A95E9F71BC08823C9F0011117C09091C3
:1015E0000D0681E0892780930D0610920C060EC02F
:1015F000F8E0AF16B10441F04CF01AE0A11AB108BE
:1016000022E0A216B10410F40E94C21CEE2009F4DC
:10161000D2C08091C30580FDCEC0F60112828595AF
:10162000859585950E94D523C6010E94230380914C
:10163000C30585958595859528960FB6F894DEBFE8
:101640000FBECDBFDF91CF911F910F91FF90EF9013
:10165000DF90CF90BF90AF909F908F900C94972386
:1016600006313CE5130709F4CBCB023C1C4509F4D9
:1016700000CCBBCC073CECE51E0750F4043CFCE579
:101680001F0709F4D1CA053C1C4509F41FCCADCC99
:10169000083C3CE5130771F4F6018281882309F4C4
:1016A0008AC02091090630E1231B08F420E0209332
:1016B0000906F4C8093C1C4560F4F60182818823C0
:1016C00009F479C02091090630E1230F08F42FEFC7
:1016D000EECFF6018281882309F46DC020910A06BD
:1016E00030E1230F08F42FEF6BCA0D3CFCE51F0718
:1016F00009F44AC908F054C90B3C3CE5130709F446
:1017000006CC0C3C1C4509F412CC6FCCF60182814E
:10171000882309F450C08091070686958695865CDB
:101720008F73823008F489CA86E050C9F60182813D
:10173000882309F440C08091070686958695895CC8
:101740008F73853008F479CA89E040C9033D3CE5D0
:10175000130731F4F6018281882369F188E136C9E3
:10176000043D1C4578F4F6018281882321F18091A3
:10177000070686958695855D8F73823008F45DCA6D
:1017800085E124C9F60182818823A9F080910706AA
:1017900086958695895D8F73893008F44ECA89E1F4
:1017A00015C90E3DECE51E0709F4D1C80C3D1C45DA
:1017B00009F01BCCF0CB28960FB6F894DEBF0FBE15
:1017C000CDBFDF91CF911F910F91FF90EF90DF90F0
:1017D000CF90BF90AF909F908F900895282F277043
:1017E00081E090E001C0880F2A95EAF780959091FA
:1017F000C50589238093C5050C949C22282F27704A
:1018000081E090E001C0880F2A95EAF79091C50524
:10181000892B8093C5050C949C22CF93E82F8730A9
:1018200080F58091090190910A01892B09F047C048
:10183000CE2F64E670E080E40E94CD2C90930A01E4
:1018400080930901892BD1F464E670E082E10E9463
:10185000242D90930A0180930901892B79F481E06A
:1018600090E001C0880FCA95EAF764E670E08095C1
:101870000E94242D90930A0180930901CF910C942A
:10188000A02D90E0FC013797E730F105C0F4E75751
:10189000FF4F0C94242E209A289811C0219A299841
:1018A0000EC0229A2A980BC0239A2B9808C0529AED
:1018B0005A9805C0539A5B9802C03E9A4698CF91B9
:1018C0000895CF93873008F03FC08091090190912F
:1018D0000A01892B09F041C064E670E080E40E94AF
:1018E000CD2C90930A0180930901892B11F0C0E05F
:1018F00027C064E670E083E10E94242D90930A01E2
:1019000080930901892B99F764E670E081E40E94D5
:10191000CD2C90930A0180930901892B41F784E62D
:1019200090E00E94542D97FF05C090930A01809388
:101930000901DDCFC82FC09510920A01109209014C
:101940000E94A02D8C2F0AC09FB18FB1807F8695F9
:1019500086959370892B809501C080E0CF91089582
:10196000CF93DF9326E0729FF001112434E5839F2B
:10197000E00DF11D1124E60FF11DEE0FFF1FE857DA
:10198000FE4FC591D491CE01C238D10549F1B0F4D2
:10199000C133D10509F464C048F4C932D10509F452
:1019A00058C0CA32D10509F462C068C0C533D10538
:1019B00009F448C0C933D10599F060C0C33ED105D0
:1019C00041F138F4C03ED10591F0C23ED105B1F0ED
:1019D00055C0C63ED10521F1C73ED10561F14EC0CB
:1019E0002091930320FD14C221FD12C213C2209145
:1019F000930320FF0FC289E390E00CC22091930370
:101A000022FF08C28091930384FDB4C183EE90E06D
:101A100001C28091930382FFF5CF82EE90E0FAC17C
:101A20002091930323FFF6C18091930384FDA2C10B
:101A300087EE90E0EFC18091930383FFF5CF86EEB0
:101A400090E0E8C12091930325FFE4C189E290E092
:101A5000E1C12091930325FFDDC185E390E0DAC168
:101A60002091930326FFD6C18AE290E0D3C1209152
:101A7000930326FFCFC181E390E0CCC1C11520E5DF
:101A8000D20708F047C0C11530E4D30708F034C1CD
:101A9000C83ED10518F5C03ED10508F0BBC1C83A13
:101AA000D10570F4C53AD10508F0B0C0C130D105F8
:101AB00009F4B0C108F45EC1249708F45BC1AAC15F
:101AC000CF3BD10508F4ADC0C03CD10508F452C1EC
:101AD000FE01EE0FFF1FE050FE4F02C1C11520E2D4
:101AE000D20760F4C11531E0D30708F093C1C03FBD
:101AF000D10508F43FC1CE0190658CC1C11580E3CA
:101B0000D80708F0F0C0FE01FF70EE0FFF1FE0588D
:101B1000FC4FE6C0C11595E5D90708F044C0C115D2
:101B200024E5D20708F000C1C11532E5D30710F54E
:101B3000C11581E5D80708F0E3C02C2F237081E0A0
:101B400090E002C0880F991F2A95E2F79C689E01D9
:101B500074E0369527957A95E1F72370922BEC2F58
:101B6000EF70E695E69530E2E39FF00111248E2BAD
:101B70009F2B50C18C2F86958695AE0143705527BB
:101B8000C115D34508F0C1C090E2899F900111248E
:101B900081E090E002C0880F991F4A95E2F7822BFE
:101BA000932B9C6837C1C1152AE5D207A0F4C11553
:101BB00039E5D30708F0C6C0C11586E5D80708F493
:101BC000B8C0C11598E5D90708F4D4C09C2F882760
:101BD000806F906A1FC1C1152BE5D20708F4CAC0F7
:101BE000CE01C1153CE5D30708F4C1C0905681155C
:101BF000904208F0BFC08D2F8F710E944A1EFE01D7
:101C0000FF27F0628F719F01382BAFC0C53AD10515
:101C100009F4B3C0C63AD10509F0B2C082E890E435
:101C2000F9C0C83AD10509F4AEC0C93AD10509F4E2
:101C3000ADC0CA3AD10509F4ACC0CB3AD10509F41C
:101C4000ABC0CC3AD10509F4AAC0CB3BD10509F40D
:101C5000A9C0CC3BD10509F4A8C0CD3AD10509F4FF
:101C6000A7C0C03BD10509F4A6C0CE3AD10509F4FE
:101C7000A5C0CF3AD10509F4A4C0C13BD10509F4F0
:101C8000A3C0C23BD10509F4A2C0C33BD10509F4EE
:101C9000A1C0C43BD10509F4A0C0C53BD10509F4DE
:101CA0009FC0C63BD10509F49EC0C73BD10509F4CE
:101CB0009DC0C83BD10509F49CC0C93BD10509F4BE
:101CC0009BC0CD3BD10509F49AC0CE3BD10509F4A8
:101CD00099C0CA3BD10509F498C080E094E49AC049
:101CE0008591949197C09E013327C901D3FF02C00B
:101CF000986C90C0906C8EC0CE019F70906A8AC024
:101D00009C2F8827816F906A85C090E2899F9001FF
:101D1000112481E090E002C0880F991F4A95E2F7F4
:101D2000822B932B9A6876C09C2F8827846F906AA9
:101D300071C08C2F0E944A1E8F7190E0982F8827C7
:101D4000906268C08C2F8F700E944A1EFE0194E042
:101D5000F695E7959A95E1F7EF70F0E0FE2FEE2704
:101D6000F06A8F70806E9F01282BC90153C099279C
:101D7000906650C080E090E04DC081E890E44AC099
:101D800083E890E447C082EE94E444C089EE94E492
:101D900041C08AEE94E43EC085EB94E43BC086EB00
:101DA00094E438C083EB94E435C084EB94E432C00F
:101DB00087EB94E42FC08CEC94E42CC08DEC94E47D
:101DC00029C083E895E426C08AE895E423C082E927
:101DD00095E420C084E995E41DC081E296E41AC030
:101DE00083E296E417C084E296E414C085E296E4A8
:101DF00011C086E296E40EC087E296E40BC08FE63F
:101E000094E408C080E794E405C08AE296E402C046
:101E100080EE90E0DF91CF910895CF92DF92EF9224
:101E2000FF920F931F936C01EE24FF24C114D10481
:101E3000E104F10411F0E0E103C06B017C01E0E09A
:101E400033272F2D1E2D0D2D0115110521053105CF
:101E500019F0E85F6801790197018601F4E0369591
:101E6000279517950795FA95D1F7011511052105C5
:101E7000310519F0EC5F680179019701860152E0A4
:101E800036952795179507955A95D1F701151105A0
:101E90002105310519F0EE5F68017901970186018E
:101EA0003695279517950795012B022B032B09F0E3
:101EB000EF5F56985E9825982D9826982E9827982B
:101EC0002F980E2F10E0F8013197E730F105A8F4B4
:101ED000E057FF4F0C94242E259A2D9A0EC0259A78
:101EE0002D9A269A2E9A09C0259A2D9A04C0259AD1
:101EF0002D9A269A2E9A279A2F9A1F910F91FF902A
:101F0000EF90DF90CF90089580E290E090930A01E7
:101F10008093090180917A0381110EC00E94C72C21
:101F200081E080937A032FEF83ED90E3215080408E
:101F30009040E1F700C0000064E670E080E40E9499
:101F4000CD2C90930A0180930901892B09F04EC092
:101F500064E670E080E00E94242D90930A01809353
:101F60000901892B09F042C064E670E080E00E941C
:101F7000242D90930A0180930901892BB9F564E619
:101F800070E08FE30E94242D90930A018093090151
:101F9000892B61F50E94A02D64E670E080E40E9428
:101FA000CD2C90930A0180930901892BF9F464E602
:101FB00070E08CE00E94242D90930A018093090127
:101FC000892BA1F464E670E080E00E94242D9093B8
:101FD0000A0180930901892B49F464E670E08FE3DC
:101FE0000E94242D90930A01809309010E94A02D44
:101FF00080910901089556985E9825982D98269805
:102000002E9827982F988FEF90E0909389008093D7
:10201000880090938B0080938A0090938D0080932A
:102020008C00259A2D9A2FEF80E792E02150804076
:102030009040E1F700C00000269A2E9A2FEF80E72B
:1020400092E0215080409040E1F700C00000279AC4
:102050002F9A2FEF80E792E0215080409040E1F7E7
:1020600000C0000025982D982FEF80E792E02150C6
:1020700080409040E1F700C0000026982E982FEF96
:1020800080E792E0215080409040E1F700C00000DE
:1020900027982F9856985E9825982D9826982E98D0
:1020A00027982F98089584B1807F84B985B1807F67
:1020B00085B98AB1837F8AB98BB1837F8BB93E980A
:1020C0004698089580B38C7080BB81B3836F81BBC9
:1020D00008957F928F929F92AF92BF92CF92DF929C
:1020E000EF92FF920F931F93CF93DF931F92CDB781
:1020F000DEB78091090190910A01892B91F08091BE
:1021000079038F5F8093790381110BC00E94840F44
:1021100090E090930A0180930901892B11F40E94A9
:10212000FB0F95E8E92E93E0F92E2CE8C22E23E070
:10213000D22E5701912C712C07E0090D892D0E9498
:102140000D0C802F0E940D0C892D0E94610CD50171
:102150009C91981719F08C9311E001C010E0802F2A
:102160000E94610CF6019081981719F0808381E03C
:1021700001C080E0182B712A0E9453109394FFEF46
:10218000AF1ABF0A2FEFC21AD20A37E09312D4CF88
:102190000E946E216AEF70E00E94FC2DBC01482F66
:1021A000809174038823D1F110927403E0917B0332
:1021B000F0917C03DF011E9690E08BEF0AEF10E0B8
:1021C00020812B3F99F0C22ED12C421720F09B0189
:1021D0002C193D0905C098012C193D09260F371F00
:1021E0002F30310514F0808301C091E03196EA1759
:1021F000FB0731F790937403711002C0911110C066
:102200001092730360917B0370917C03909174032F
:10221000E8E9F3E080E03EE03E0F32C07110F0CF1D
:10222000809173038111ECCF6091750370917603F7
:1022300080917703909178030E9418212FB7F8942A
:10224000C090CB05D090CC05E090CD05F090CE05A8
:102250002FBFC0927503D0927603E0927703F0927D
:1022600078038090030690900406A0900506B09035
:102270000606AFEF8A169A06AA06BA06D1F43AC045
:10228000D7012D917D015081521749F0DB015C91FE
:102290005B3F21F44C93208391E001C081E06F5FAC
:1022A0007F4F31963E13ECCF90937403809373036A
:1022B000BBCFAB01BC01662777278A019B01009544
:1022C000109520953095081519052A053B0520F431
:1022D0008FEF9FEFDC0106C0DB01CA01880D991D5D
:1022E000AA1DBB1D8093030690930406A0930506C8
:1022F000B093060620910706822F837021F0122FDB
:102300001695169501C010E0809108018130A1F06A
:1023100038F0823009F452C1833009F45AC16AC1DD
:1023200010921601C092FF05D0920006E0920106BD
:10233000F092020681E04AC18091070118130EC095
:10234000237030E08091060190E051E040E02817D2
:10235000390709F450E0252F342F02C021E030E086
:10236000822F817080931801812F90E08531910533
:1023700008F012C1FC01E956FF4F0C94242E9091F5
:102380001601232B09F408C1F92EFF0CFF0CF90EDE
:1023900005E00F0D013308F000E3F01608F0BDC0B2
:1023A00020E040E060E08F2D90E00E94D01CF3948C
:1023B000F4CF90911601D92EDD0CDD0CD90E05E07D
:1023C0000D0D013308F000E36091080670910906D5
:1023D00080910A060E94AB1DF62EE82ED01608F05A
:1023E0009CC0ED2DF0E0DF01A35CBC4F8C9190917F
:1023F0001701982341F02E2D4F2D672FCF017983A0
:102400000E94D01C7981D394E9CF80911601B82E17
:10241000BB0CBB0CB80E35E03B0D313308F030E39C
:10242000D0900906C0900A0620910B0600E4029F96
:10243000012D1124B31628F5EB2CF12CF701E35CE8
:10244000FC4F8081909117019823C9F0F701EE0F9E
:10245000FF1FE252FD4F908192959F706091080698
:10246000099F600D11247D2D8C2D39830E94AB1D99
:10247000462F282F672FC7010E94D01C3981B394A3
:10248000D9CF81E0303308F488C086C0809116012E
:10249000D82EDD0CDD0CD80E05E00D0D013308F053
:1024A00000E3F090080670910906E0900A0680911A
:1024B0000B06682F6695669566958091FF0590914D
:1024C000000679830E94A01D0E941E1D8058982F2F
:1024D00097FD9195990F292F3E2D239F212D112492
:1024E0006F2D7981822F0E94AB1DF62EE82ED0161B
:1024F000A0F4ED2DF0E0DF01A35CBC4F8C91909136
:102500001701982341F02E2D4F2D672FCF0179838E
:102510000E94D01C7981D394EACF81E00033E8F1A6
:102520003BC08BE599E102C08FE299E10E9443250F
:1025300034C084E39AE11DC085E19AE11AC08AEFB4
:1025400099E11CC08FED99E119C08DE299E1EECFC0
:1025500084E299E1EBCF8BE199E1E8CF80E099E16A
:10256000E5CF81EF98E10AC081E79DE102C08EECE2
:1025700099E10E94E72411C08AEB99E10E946B2443
:102580000CC083EC98E105C081E998E102C083E5C5
:1025900098E10E940A2401C080E0909116019F5F9B
:1025A00090931601811126C082E0809308018091EA
:1025B000180181111FC0112341F01CC010930701A5
:1025C0002370209306010E94841A83E080930801FF
:1025D00011C06091FF0570910006809101069091F5
:1025E00002060E9418216A3171058105910510F0DB
:1025F00010920801872D0F90DF91CF911F910F91BD
:10260000FF90EF90DF90CF90BF90AF909F908F9012
:102610007F900895E8EDF0E080818E7F80831092B6
:10262000E2001092DA001092E100A0EEB0E08C918E
:1026300081608C9380818F77808319BCA7EDB0E097
:102640008C918E7F8C9380818F7E80831092C003CB
:1026500008951F920F920FB60F9211242F933F935C
:102660004F935F936F937F938F939F93AF93BF939A
:10267000CF93DF93EF93FF93C091E900CF708091E8
:10268000EC00D82FD17080FDD0E81092E900809145
:10269000F000877F8093F00078940E94CF251092FD
:1026A000E9008091F00088608093F000CD2BCF701E
:1026B000C093E900FF91EF91DF91CF91BF91AF916E
:1026C0009F918F917F916F915F914F913F912F914A
:1026D0000F900FBE0F901F9018952091E40030913D
:1026E000E50095E64091EC00842F817040FF22C008
:1026F0008091E80080FD1CC08091F505882391F051
:10270000853091F08091EB0085FD10C04091E40090
:102710005091E5004217530729F39A01915011F7A0
:1027200084E0089582E0089583E0089581E00895AB
:1027300080E008954091E80042FFDECF0895809147
:10274000F70587FF11C08091E80082FD05C08091E8
:10275000F5058111F8CF11C08091E8008B770BC08F
:102760008091F505882349F08091E80080FFF8CF3B
:102770008091E8008E778093E8000895982F973035
:1027800058F59093E900981739F07091EC0020917A
:10279000ED005091F00003C0242F762F50E021FF70
:1027A00019C03091EB003E7F3093EB003091ED008B
:1027B0003D7F3093ED003091EB0031603093EB00C2
:1027C0007093EC002093ED005093F0002091EE0008
:1027D00027FF07C09F5FD3CF8F708093E90081E010
:1027E000089580E00895CF92DF92EF92FF920F93C9
:1027F0001F93CF93DF93C8EDD0E088818F7E8883CD
:10280000E7EDF0E080818160808384E082BF81E039
:102810008093C00388818E7F888302EE10E0F801E8
:1028200010821092DA0081EEC82ED12CF6011082AF
:1028300088818F77888388818068888388818F7D6D
:10284000888319BC1092F5051092F6051092F405D4
:102850001092F30590EEE92EF12CF70180818B7F29
:10286000808388818160888342E060E080E00E940C
:10287000BE13F60180818E7F8083F80180818160A4
:102880008083808188608083F70180818E7F808350
:10289000888180618883DF91CF911F910F91FF9094
:1028A000EF90DF90CF9008951F920F920FB60F9286
:1028B00011242F933F934F935F936F937F938F9345
:1028C0009F93AF93BF93EF93FF938091E10082FFBB
:1028D00009C08091E20082FF05C08091E1008B7FFA
:1028E0008093E1008091DA0080FF2AC08091D800B7
:1028F00080FF26C08091DA008E7F8093DA0080917D
:10290000D90080FF18C080E189BD82E189BD09B48A
:1029100000FEFDCF81E08093F5058091C003811119
:102920000FC00E940A130E94F3138091E20084609A
:102930008093E20005C019BC1092F5051092C00307
:102940008091E10080FF17C08091E20080FF13C0FA
:102950008091E2008E7F8093E2008091E2008061AE
:102960008093E2008091D80080628093D80019BCE7
:1029700085E08093F5058091E10084FF36C0809169
:10298000E20084FF32C080E189BD82E189BD09B4E3
:1029900000FEFDCF8091D8008F7D8093D80080917C
:1029A000E1008F7E8093E1008091E2008F7E809332
:1029B000E2008091E20081608093E2008091F60560
:1029C000882311F084E007C08091E30087FD02C0F6
:1029D00081E001C083E08093F5051092D0050E944C
:1029E0000B2B0E94C21C1092C1038091E10083FF57
:1029F00027C08091E20083FF23C08091E100877FA0
:102A00008093E10082E08093F5051092F6058091B5
:102A1000E1008E7F8093E1008091E2008E7F8093C1
:102A2000E2008091E20080618093E20042E060E099
:102A300080E00E94BE138091F00088608093F000D7
:102A4000FF91EF91BF91AF919F918F917F916F9186
:102A50005F914F913F912F910F900FBE0F901F905C
:102A600018952091FD053091FE052617370748F08F
:102A70006115710539F42091E8002E772093E80064
:102A800001C0B90140E061157105A9F12091F5057A
:102A9000222309F443C0253009F442C02091E80004
:102AA00023FD40C02091E80022FD32C02091E800C3
:102AB00020FFE9CF4091F3002091F20030E0342B69
:102AC000FC01CF016115710559F02830310540F442
:102AD00081918093F100615071092F5F3F4FF1CFD9
:102AE00041E02830310509F040E02091E8002E77E0
:102AF0002093E800C8CF4111C9CF0AC08091F505E5
:102B0000882361F0853061F08091E80083FD0AC080
:102B10008091E80082FFF2CF80E0089582E008957E
:102B200083E0089581E008958091BF03811107C07B
:102B30008091F505843011F081E0089582E00895D8
:102B4000CF93DF93CDB7DEB72A970FB6F894DEBFE9
:102B50000FBECDBF84B7877F84BF0FB6F894A8950A
:102B600080916000886180936000109260000FBEC9
:102B700080E8809361001092610085B7806885BF0E
:102B800085B7806885BF0E940A130E94F313809165
:102B9000E20084608093E20078948091F5058823B8
:102BA000A1F01091E9001F709091EC00892F8170C5
:102BB00090FD80E8182B1092E9008091E80083FDD9
:102BC0000E94CF251F701093E90082E084BD93E03E
:102BD00095BD9AEF97BD80936E000E94840F90E0A0
:102BE00090930A01809309010E9453100E94621081
:102BF000A5E8B3E0E8E9F3E01EE0E12EEE0E119265
:102C00001D92EE12FCCF8EE090E00E942A2E80935F
:102C10007B0390937C03FC010E962BEF2193E81726
:102C2000F907E1F70E941C22811102C00E942722AD
:102C30000E94F11A0E941C22811104C00E942722C6
:102C40000E94121D45E050E06CE170E087E096E0E4
:102C50000E94A42D809107068C7F11F40E94121D02
:102C60008CE090E00E94B42D90E0A0E0B0E0809372
:102C70007D0390937E03A0937F03B093800389EA42
:102C80008093800089E08093810024982C983F985D
:102C90008AB18F7C8AB96E98479A8BB180638BB961
:102CA000769A8FE090E00E94BC2D60938103709330
:102CB0008203809383039093840367708FEF869FD2
:102CC000B001112475956795759567957727709371
:102CD00089006093880070938B0060938A007093E2
:102CE0008D0060938C009091810394FF03C08093CA
:102CF000170102C0109217010E94FB0F0E941C22B4
:102D0000811102C00E94272282E090E00E94B42D2F
:102D10008093B00384E090E00E94B42D90E0909303
:102D200094038093930383E090E00E94B42D682F76
:102D300070E080E090E00E94F623809107068370A7
:102D400011F410920801809107068C7F81608093B6
:102D500007068BE091E09093960380939503FF2400
:102D6000F39499249A94CC24C394D12C50E1452E09
:102D700062E1562E78E1A72EB12CE0E48E2E8091F0
:102D8000F505853009F046C0F092C1038091F50544
:102D9000843009F1109297030FB6F894A895A09289
:102DA00060000FBE8092600083B7817F846083BF24
:102DB00083B7816083BF7894889583B78E7F83BF04
:102DC0000FB6F894A89580916000886180936000A8
:102DD000109260000FBE8091F405882309F4CFCFD4
:102DE0000E94840F90E090930A01809309010E9451
:102DF00053100E946210E8E9F3E01192EE12FDCF49
:102E00000E946910E8E9F3E081918111F2C0EE12AD
:102E1000FBCFB5CF0E946910E1EBF3E0A8E9B3E086
:102E200000E010E0702F6D9121912627B1F180E034
:102E300090E030E0782EA901082E02C05595479504
:102E40000A94E2F740FF25C089837A83C60102C055
:102E5000880F991F7A94E2F73C01862F90E0862133
:102E6000972121E0892B09F420E02B830E946E2119
:102E70008160782F9D838C8349815A816B818D81FC
:102E80000E94C01BF801EF54FC4F808168266082CD
:102E900019C001968630910569F60F5F1F4F0E30FD
:102EA000110509F0BFCF9E829F8218860E946E2175
:102EB0008160782F9A8789874E815F8168858A85AE
:102EC0000E94C01B8091AD039091AE030E944421EB
:102ED0009C019091AC03992321F02431310508F431
:102EE0007CC08091A8031091A90381110BC011111E
:102EF00094C02091AA03211190C02091AB0321110D
:102F00008CC06BC09F3F19F09F5F9093AC03181665
:102F100024F40E9467208093A8038091A80387FF70
:102F200005C00E94672081958093A803111624F4A0
:102F30000E9467208093A9038091A90387FF05C0A1
:102F40000E94672081958093A9033091A8033323C1
:102F500001F12091A9032223E1F045EB3403C001E4
:102F60001124892F990F990B009719F08093A803CA
:102F700002C0F092A80335EB2303C0011124892F6E
:102F8000990F990B009719F08093A90302C0F09252
:102F9000A9038091AA03181624F40E944520809367
:102FA000AA038091AA0387FF05C00E94452081954E
:102FB0008093AA038091AB03181624F40E94452045
:102FC0008093AB038091AB0387FF05C00E9445202F
:102FD00081958093AB030E947A211091AF030E94E8
:102FE000C21C181709F4CBCE0E94C21C8093AF03F9
:102FF000C6CE49BC59BC09B400FEFDCF8091D800B3
:103000008F7D8093D8008091E00082608093E00003
:103010008091E00081FDFCCFB2CE9F3F09F074CFDC
:103020007CCF8033910520F5880F991F880F991F59
:10303000FC01EF5DFE4F528133818081837071818D
:10304000E0E98E9FC001112484509C4FFC01E70FE2
:10305000F11DB4976083FC01E50FF11DB497408327
:10306000830F911DFC01B497208381E08093FB03C3
:103070000895FF920F931F93CF93DF93182F062F7E
:10308000F42EC0E0D0E02F2D402F612FCE010E9402
:1030900011182196C033D105B1F7DF91CF911F915F
:1030A0000F91FF9008950F931F9310E0F801EE0F1A
:1030B000FF1FE352FD4F9081905797FD9195000FB0
:1030C000111FF801E252FD4FE081F0E0B097DF01FF
:1030D000AA0FBB1F8D010E0F1F1F2003D001219FC0
:1030E000B00D1124E8E3F0E0E91BF10997FDF39539
:1030F0009F01220F331F89010E0F1F1F40039001F4
:10310000419F300D11242A0F3B1F37FF02C0215869
:103110003F4F220F232F221F330B620F1F910F915E
:1031200008950F931F93522F10E0F801EE0FFF1F29
:10313000E252FD4FE081F0E0B097EE0FFF1F9F01DC
:103140005203D001539FB00D1124000F111FF8013D
:10315000E352FD4F008110E000571109000F111FCD
:1031600040039001419F300D11242A0F3B1F37FF70
:1031700002C021583F4F220F232F221F330B620F13
:103180001F910F9108950F931F93522F10E0F80194
:10319000EE0FFF1FE252FD4FE081F0E0B0979F017C
:1031A0005203D001539FB00D1124000F111FF801DD
:1031B000E352FD4F008110E00057110940039001D8
:1031C000419F300D11242A0F3B1F37FF02C02158A9
:1031D0003F4F220F232F221F330B620F1F910F919E
:1031E0000895EF920F931F9393E0099F800111249C
:1031F000159507956E2D600F1F910F91EF90089513
:1032000050E0FA01EE0FFF1FE252FD4F9081905205
:1032100097FD9195440F551FFA01E352FD4F4081F0
:1032200050E0FA01E21BF1099F01290F311D97FDC2
:103230003A95620F0895E42FF0E0EE0FFF1FE2527F
:10324000FD4F6081621B0895E42FF0E0EE0FFF1F39
:10325000E352FD4F6081621B0895622F0895E42FB1
:10326000F0E0EE0FFF1FE352FD4F408134EE439F2D
:10327000412D1124E82FF0E050E0445E5F4FDA0169
:10328000A21BB1099D01B7FF03C0319521953109FA
:1032900093E0220F331F9A95E1F7AF01421B530BC6
:1032A0009A0157FF02C020E030E0582F259F212DC2
:1032B0001124822F0895E42FF0E0EE0FFF1FE35258
:1032C000FD4F408134EE439F412D1124E72FF0E064
:1032D00050E0445E5F4FDA01A21BB1099D01B7FFC8
:1032E00003C031952195310993E0220F331F9A9540
:1032F000E1F7AF01421B530B9A0157FF02C020E0D8
:1033000030E0279F212D1124722F0895FC01CB015D
:10331000309721F477FF2CC080E808959F01F7FFD4
:1033200004C0222733272E1B3F0BBC01621B730BEB
:10333000280F391F97FD0DC0CB0145E0880F991F5D
:103340004A95E1F7B9010E94102E80E2861B682F92
:1033500009C0C90125E0880F991F2A95E1F70E944D
:10336000102E605A862FF7FF02C0819508950895A8
:1033700080E00895EF920F93CF93DF93D72FC82F5C
:10338000C9010E19BA010E948619602F681B7D2F92
:103390008C2FDF91CF910F91EF9008950F93CF93E2
:1033A000DF93D72FC82FC901BA010E948619682F51
:1033B000600F7D2F8C2FDF91CF910F910895EF92A9
:1033C0000F931F93CF93DF93D62FC72F182FC901C9
:1033D0000E19010FBA010E948619081B019F012DC9
:1033E00011246D2F7C2F802FDF91CF911F910F9192
:1033F000EF900895EF920F931F93CF93DF93D62F03
:10340000172FC82FC9010E19070FBA010E9486197C
:10341000081B702F719F712D11246D2F8C2FDF9140
:10342000CF911F910F91EF900895FF920F931F93EB
:10343000CF93DF93F62ED72F182FC901C12FC01BB2
:10344000BA010E948619982F880F980F2C2F291BDC
:10345000219F212D11246F2D7D2F822FDF91CF9160
:103460001F910F91FF900895FF920F931F93CF9399
:10347000DF93F62E172FD82FC901C72FC01BBA0113
:103480000E948619982F880F980FC91B7C2F719F57
:10349000712D11246F2D8D2FDF91CF911F910F91E1
:1034A000FF900895EF92FF921F93CF93DF937B01DC
:1034B000182F110FC0E0D0E08C2F8C5D8093E703B4
:1034C00020E030E0F901EC0FFD1FEE0DFF1D8081C3
:1034D000F901E951FC4F81832F5F3F4F20313105C6
:1034E00089F724E630E041E150E067EE73E0812F98
:1034F0000E94792D6096C039D105F1F6DF91CF9108
:103500001F91FF90EF9008958091FB03882351F065
:103510006CEF73E084E70E94521A6CE874E087E76E
:103520000E94521A1092FB030895E7EEF3E06083C5
:10353000418324E630E042E050E0BF01880F0C9464
:10354000792DCF93DF93C82F4BE06DEF0E94951A32
:1035500040E06AE08C2F0E94951A8FE39CE9019766
:10356000F1F700C0000040E060E08C2F0E94951A47
:1035700040E061E08C2F0E94951A40E066E08C2FBD
:103580000E94951A40E06DEF8C2F0E94951AD0E0B2
:1035900040E06D2F8C2F0E94951ADF5FD231C1F76A
:1035A00040E06D2F8C2F0E94951ADF5FD432C1F757
:1035B00040E06D2F8C2F0E94951ADF5FD43BC1F73E
:1035C0004BE06DEF8C2F0E94951A41E06AE08C2F42
:1035D0000E94951A40E06DEF8C2FDF91CF910C94F3
:1035E000951A7F928F929F92AF92BF92CF92DF9265
:1035F000EF92FF920F931F93CF93DF930E94C72CFC
:1036000084E70E94A11A87E70E94A11AE4E2EE2E45
:10361000E1E0FE2EC12CD12CF2E17F2EA8E08A2E13
:10362000912CAA24A394B12CF7013297608170E009
:10363000CB0184973196E081F0E0B497D7012C91CB
:1036400030E024523109D601AA0FBB1FAA0FBB1FBD
:10365000AF5DBE4FCC91C370D0E0AC0197FF02C00C
:10366000495F5F4F63E0559547956A95E1F77C9E0A
:1036700080017D9E100D1124040F111D0E531C4F4F
:10368000B4010E94102EA50102C0440F551F8A9557
:10369000E2F7CA01D8019C91892B8C93CF01F7FDE9
:1036A000079653E0959587955A95E1F77C9E8001A2
:1036B0007D9E100D1124080F111D0E531C4FCF01BC
:1036C000B4010E94102EF50102C0EE0FFF1F8A9573
:1036D000E2F7CF01D8019C91892B8C93C90137FD6A
:1036E000079643E0959587954A95E1F77C9EF00112
:1036F0007D9EF00D1124E80FF11DEE53FC4FC90122
:10370000B4010E94102E950102C0220F331F8A952A
:10371000E2F7C9019081892B80833FEFC31AD30A56
:1037200044E0E40EF11C50E3C516D10409F07CCF4F
:1037300081E08093E60302EC13E0C0E0D0E0D80122
:103740004D918D016C2F84E70E94951AFE01EE5376
:10375000FC4F42896C2F87E70E94951A2196C2314F
:10376000D10569F7DF91CF911F910F91FF90EF90F5
:10377000DF90CF90BF90AF909F908F907F900895F3
:10378000EF92FF920F931F93CF93DF93CDB7DEB7E6
:1037900067970FB6F894DEBF0FBECDBF4B8B5C8B27
:1037A0006D8B7E8B8F8B0E891F8901151105C1F1E1
:1037B0005F3F11F44F3FA1F1E42EF12CA1E0B0E006
:1037C000042E01C0AA0F0A94EAF7852F90E0662321
:1037D00019F020910D0606C09C012E5D3A4FF901AB
:1037E00020812A232223A9F046E0489F9001499F87
:1037F000300D1124F701E20FF31FEE0FFF1FEF5101
:10380000FE4F40815181FC01EE5DFA4F9081A92B62
:1038100006C0FC01EE5DFA4FA0958081A823A0832D
:1038200086E0FE013D96DF01982F1D929A95E9F7FB
:103830004D875E876F87198B088BDE011796019085
:103840000D928A95E1F7CE0107960E9426298111F3
:1038500037C086E0FE013796DE01119601900D9289
:103860008A95E1F7FF81E8856A857B856115710599
:1038700039F1EF3F11F4FF3F19F12091560530E087
:10388000C9010196877099274091870550E08417F8
:10389000950779F1F983EA837D836C8396E0929FA3
:1038A000D001939FB00D1124A95ABA4FFE01319651
:1038B00001900D929A95E1F7809356050E9400249D
:1038C00016E08091870590915605891711F1189F90
:1038D000C0011124895A9A4F0E9426298823C9F0D1
:1038E0008091870590E001968770992780938705DE
:1038F000E8CF1092D0050E940B2B10925605109223
:103900008705E0E5F5E086E0DF011D928A95E9F79D
:10391000D7CF67960FB6F894DEBF0FBECDBFDF914D
:10392000CF911F910F91FF90EF9008952091200566
:10393000309121058217930771F0909321058093B0
:103940002005E0919503F0919603309721F00084D3
:10395000F185E02D0994089520911E0530911F05F1
:103960008217930771F090931F0580931E05E091D5
:103970009503F0919603309721F00680F781E02DB2
:1039800009940895E0919503F0919603309721F002
:103990000190F081E02D099480E008950C9439188D
:1039A0000C94111845E050E06CE170E087E096E07F
:1039B0000C94C82DE7E0F6E0880F880F9081937093
:1039C000892B8083109208010C94D21C90910706D9
:1039D000892F86958695815C8F739370882321F05B
:1039E000880F880F892B02C0892F80658093070676
:1039F000109208010C94D21C90910706892F86958D
:103A000086958F5F8F739370853120F4880F880FB0
:103A1000892B02C0892F84608093070610920801C9
:103A20000C94D21CE7E0F6E08DE2808311828FEFE8
:103A3000828383838FE784830C94D21C482F982F32
:103A400046FD9095E92FEF739F7046FD9F5FE295CD
:103A5000EF70EE0FF0E0E75EFE4F2181299F802D91
:103A6000212D112482958F702295207F822B308109
:103A7000982F930F892F47FD819580580895BC0199
:103A80008230910508F40895613E8EE1780748F48C
:103A90009B0195E0369527959A95E1F748E0420F0E
:103AA00001C04FEF91E0242F30E0290F311D3595F3
:103AB0002795229FF001239FF00DF00D11246E1722
:103AC0007F0718F44FEF420F05C02F3F310539F043
:103AD00091E0920F491738F78FEF890F08958FEF14
:103AE00008950F931F93CF93DF931F92CDB7DEB747
:103AF000182F47FD4195E8E3F0E0CF01841B9109C1
:103B000047FD9395889FF001899FF00DF00D1124DA
:103B1000229FC001239F900D900D11248E0F9F1F97
:103B200079830E943F1D982F880F980F692F600F8F
:103B30007981812F0F90DF91CF911F910F9108957F
:103B400020E030E0A901869F412D969F400D511D38
:103B50001124CA010895CF92DF92EF92FF920F9342
:103B60001F93CF93DF937B01282F382FE82FF0E0AE
:103B7000F11006C0E058FC4F6491762F862F7BC071
:103B80000F2D10E046E0649FC0011124CFEFD0E07C
:103B9000BE010E94FC2DAB016BEA6403C001659F6E
:103BA000900D11248E0D911D8E0D911D982F990F42
:103BB000890FBE01601B710B6E9FD0016F9FB00D0E
:103BC0007E9FB00D11249B2F8F9DB0011124672F74
:103BD00077277E01E61AF70AEE9EB001EF9E700D80
:103BE000FE9E700D11246E01C81AD108C09E70018E
:103BF000C19EF00CD09EF00C11240F2D1127C01B7C
:103C0000D10BCE9F8001CF9F100DDE9F100D112490
:103C1000812F4230510591F04CF441155105E1F0EE
:103C200041305105B9F4822F272F16C04430510579
:103C300069F044F04630510579F00CC0822F2B2FEB
:103C4000912F0AC02B2F932F872F06C08B2F922FD7
:103C5000212F02C08B2F972FE22FF0E0E058FC4F6E
:103C60007491E82FF0E0E058FC4F6491E92FF0E008
:103C7000E058FC4F8491DF91CF911F910F91FF90FD
:103C8000EF90DF90CF90089560917D038CE090E0FD
:103C90000C94D82D9091930392FF0DC0282F28717A
:103CA000283019F4877F846006C0282F24712430BF
:103CB00011F48B7F886093FF0DC0282F2871283165
:103CC00019F4877E846106C0282F2471243111F4F1
:103CD0008B7E886194FD877E08950F931F93CF9309
:103CE000DF93C62FD42F022FFC0182818823C9F0D5
:103CF00060936F030E946E2190931D0580931C05B5
:103D000080E28C0F883008F050C0C77081E001C09D
:103D1000880FCA95EAF7DF91CF911F910F910C940C
:103D2000292B10916F03161330C080911C059091C0
:103D30001D050E944421883C910538F5C0E2CD0F55
:103D40001D17B9F080E2810F883040F4177081E0D0
:103D500001C0880F1A95EAF70E941E2BC83048F45C
:103D600081E09D2F977001C0880F9A95EAF70E9415
:103D7000292B802F0E949A2BC830B8F4D77081E08D
:103D800001C0880FDA95EAF70AC080E28C0F88300C
:103D900060F4C77081E001C0880FCA95EAF7DF912F
:103DA000CF911F910F910C941E2BDF91CF911F91FA
:103DB0000F9108958091D2050895CF93DF9300D09D
:103DC0001F92CDB7DEB72091F505243031F523E001
:103DD0002983805891099B838A8382E08093E9003C
:103DE0008FEF9091E800815095FD06C095ED9A9572
:103DF000F1F700008111F5CF8091E80085FF0DC03B
:103E000040E050E063E070E0CE0101960E9498250A
:103E10008091E8008E778093E8000F900F900F90CC
:103E2000DF91CF9108950F931F93CF93DF9300D02D
:103E30001F92CDB7DEB78C010E949415823011F02D
:103E4000843021F584E089831B830A8382E0809398
:103E5000E9008FEF9091E800815095FD06C095ED47
:103E60009A95F1F700008111F5CF8091E80085FF68
:103E70000DC040E050E063E070E0CE0101960E948A
:103E800098258091E8008E778093E8000F900F903E
:103E90000F90DF91CF911F910F910895CF93DF93F2
:103EA000EC010E949415823011F08430F9F482E024
:103EB0008093E9009FEF8091E800915085FD06C056
:103EC00085ED8A95F1F700009111F5CF8091E8001A
:103ED00085FF0CC040E050E066E070E0CE010E943B
:103EE00098258091E8008E778093E800DF91CF914C
:103EF0000895CF93DF93EC010E949415823011F066
:103F00008430D9F580911501882339F0809193038D
:103F100087FF03C060E282E002C068E081E0809336
:103F2000E9008FEF9091E800815095FD06C095ED76
:103F30009A95F1F700008111F5CF8091E80085FF97
:103F40001CC080911501811105C040E050E068E07F
:103F500070E003C070E040E050E0CE010E94982580
:103F60008091E8008E778093E80080E2FE01A3ED67
:103F7000B5E001900D928A95E1F7DF91CF91089518
:103F8000803F39F48091A90387FF6CC01092A90388
:103F900069C0813F29F48091A9031816BCF362C05F
:103FA0009091A803823F29F497FF5CC01092A80368
:103FB00059C0833F19F41916CCF354C0893F41F41A
:103FC0008091AA0318160CF04DC01092AA034AC0A3
:103FD0008A3F29F48091AA0387FF44C0F6CF8B3F24
:103FE00039F48091AB0387FF3DC01092AB033AC018
:103FF0008C3F29F48091AB031816BCF333C0843F87
:1040000021F48091A7038E7F17C0853F21F4809112
:10401000A7038D7F11C0863F21F48091A7038B7F7A
:104020000BC0873F21F48091A703877F05C0883F9D
:1040300031F48091A7038F7E8093A70313C08D3F37
:1040400021F48091CF058E7F0BC08E3F21F48091AB
:10405000CF058D7F05C08F3F29F48091CF058B7FE1
:104060008093CF058091A80381110EC08091A90390
:1040700081110AC08091AA03811106C08091AB030F
:10408000811102C01092AC0308958091CF0580FD8C
:1040900016C081FD16C082FD18C08091AC03882334
:1040A00091F0883290F428E0829FC001112468E2E8
:1040B00070E00E94102E862F672B29F007C082E047
:1040C000089584E0089581E0089588E0089580913E
:1040D000CF0580FD17C081FD17C082FD19C08091FA
:1040E000AC03882399F08C3398F423E2829FC001BB
:1040F00011246CE370E00E94102E862F672B49F488
:1041000081E0089588E0089581E1089585E00895AB
:1041100083E20895803F21F40E946720819504C0C6
:10412000813F29F40E9467208093A9030895823F6C
:1041300021F40E946720819504C0833F29F40E94E6
:1041400067208093A8030895893F19F40E944520B1
:1041500005C08A3F31F40E94452081958093AA03CF
:1041600008958B3F21F40E944520819504C08C3F27
:1041700029F40E9445208093AB030895843F21F4E5
:104180008091A703816017C0853F21F48091A70328
:10419000826011C0863F21F48091A70384600BC028
:1041A000873F21F48091A703886005C0883F31F4E0
:1041B0008091A70380618093A70308958D3F21F428
:1041C0008091CF0581600BC08E3F21F48091CF0597
:1041D000826005C08F3F29F48091CF058460809371
:1041E000CF05089578941F920F920FB60F92112465
:1041F0008F939F93AF93BF938091CB059091CC0504
:10420000A091CD05B091CE050196A11DB11D809361
:10421000CB059093CC05A093CD05B093CE05BF916F
:10422000AF919F918F910F900FBE0F901F90189597
:10423000CF92DF92EF92FF920F931F932FB7F894D4
:10424000C090CB05D090CC05E090CD05F090CE0588
:104250002FBF97018601061B170B280B390BC616BB
:10426000D706E806F90618F0C901B80106C0C90169
:10427000B80161507109810991091F910F91FF9057
:10428000EF90DF90CF900895CF92DF92EF92FF9260
:104290000F931F932FB7F8944091CB055091CC0505
:1042A0006091CD057091CE052FBF6A017B01EE2490
:1042B000FF248C0120E030E0C016D106E206F306B0
:1042C00010F4415051099A01281B390BC9011F9163
:1042D0000F91FF90EF90DF90CF9008952FB7F89453
:1042E0008091CB059091CC05A091CD05B091CE05E4
:1042F0002FBF0895E0919503F0919603309749F010
:1043000082E08093A6030480F581E02D86EA93E0A5
:1043100009950E946E219093AE038093AD0308959A
:104320001F920F920FB60F9211248F939F93AF930A
:10433000BF9380919703811113C08091CB05909119
:10434000CC05A091CD05B091CE054196A11DB11D22
:104350008093CB059093CC05A093CD05B093CE056B
:10436000BF91AF919F918F910F900FBE0F901F90B3
:10437000189520911501222321F02091930327FD08
:1043800004C0FC013296089619C0262F2695269562
:1043900026952E31C0F4FC01E20FF11D677081E01B
:1043A00090E001C0880F6A95EAF780959281892391
:1043B000828308953196E817F90729F020812613A2
:1043C000F9CF1082F7CF089520911501222321F013
:1043D0002091930327FD05C0FC0132962FEF30E0BA
:1043E00019C0262F2695269526952E3120F5FC01FD
:1043F000E20FF11D677081E090E001C0880F6A95BF
:10440000EAF79281892B828308952F3F39F03F5F2D
:10441000363041F041914613F8CF0DC04111F7CF2E
:10442000232FF5CF2F3F39F0FC01E20FF11D27FDBF
:10443000FA9562830895089580E090E00E94C22D6D
:1044400021E08D3E9E4F09F020E0822F08956DEE11
:104450007EEF80E090E00E94F62D60E082E090E048
:104460000E94D82D60E083E090E00E94D82D109249
:10447000C7051092C8051092C9051092CA0560E0E0
:1044800084E090E00E94D82D60E085E090E00E94FA
:10449000D82D60E086E090E00E94D82D6FEF87E095
:1044A00090E00E94D82D40E050E0BA0188E090E012
:1044B0000E94EA2D60E08DE090E00E94D82D40E05F
:1044C00050E0BA0188E190E00E94EA2D60E087E1C7
:1044D00090E00E94D82D40E050E0BA018CE190E0DD
:1044E0000E94EA2D60E080E290E00E94D82D1092B8
:1044F000810310928203109283031092840384E05C
:104500008061809381034091810350918203609187
:104510008303709184038FE090E00E94EA2D40E0D5
:1045200050E0BA0183E190E00C94EA2D8091C60539
:1045300081111092C60508959091C5058091D0050E
:10454000892B2091C405982F922B90933005809150
:10455000C6058823D9F0892B8093300580911501F9
:10456000882331F08091930387FF02C08EE101C060
:1045700086E0E2E3F5E090E0815028F021912223EB
:10458000D9F39F5FF9CF91110E949622E091950394
:10459000F09196033097A9F080911501882359F086
:1045A0008091930387FF07C0809130058093310588
:1045B00085E0809330050280F381E02D80E395E073
:1045C00009940895BF92CF92DF92EF92FF920F93DA
:1045D0001F93CF93DF938C01C090C705D090C8057F
:1045E000E090C905F090CA058091BF059091C00583
:1045F000A091C105B091C205C82AD92AEA2AFB2A8E
:10460000CFE1D0E0D701C6010C2E04C0B695A79526
:10461000979587950A94D2F780FF07C0BC2EB80102
:104620008C2F0E94B00C019719F4219758F7B12CE8
:104630008B2DDF91CF911F910F91FF90EF90DF9025
:10464000CF90BF900895CF93DF93EC010E94E222B8
:10465000BE010E94B00CDF91CF910895292F220F47
:10466000920F990F890F682F669566956695982F1A
:10467000977085E0689FB001112440E050E080E031
:10468000FA01E60FF71FE857FA4F208130E0092EB4
:1046900002C0369527950A94E2F721703327042E3D
:1046A00001C0220F0A94EAF7822B4F5F5F4F45301B
:1046B000510531F70895292F220F920F990F890F75
:1046C000A82FA695A695A695877051E001C0550F15
:1046D0008A95EAF785E0A89FD001112420E030E018
:1046E00070E0F901EA0FFB1FE857FA4F4081CB0158
:1046F000022E02C0969587950A94E2F78170992759
:10470000819584278523842780832F5F3F4F253021
:10471000310539F708950E940D0F6093BF0570931E
:10472000C0058093C1059093C2050C94F02A0F93A5
:104730001F9341E050E060E070E004C0440F551F5B
:10474000661F771F8A95D2F74095509560957095B2
:104750008091BF059091C005A091C105B091C2059F
:104760008A019B01082319232A233B23C901B8018D
:104770001F910F910C948B232091C3058095822368
:104780008093C305982F977079F430E0482F082E56
:10479000000C550B2417350739F0859585958595BF
:1047A0000E9497231092C30508950F931F9341E031
:1047B00050E060E070E004C0440F551F661F771F93
:1047C0008A95D2F78091BF059091C005A091C1054F
:1047D000B091C2058A019B01082B192B2A2B3B2B78
:1047E000C901B8011F910F910C948B236093C705E9
:1047F0007093C8058093C9059093CA050C94F02A5C
:104800008091870590915605891719F08F5F877001
:10481000FBCF08959F92AF92BF92CF92DF92EF921B
:10482000FF920F931F93CF93DF936C01809116013A
:10483000C82FCC0FCC0FC80FD5E0DC0FD13308F058
:10484000D0E360910B06669566958091FF05909187
:1048500000060E94A01D182F80E4810F0E941E1DDB
:1048600090E8F92EF80E812F0E941E1D20E8922E4E
:10487000980ECD1700F5AC2EB12CF501E35CFC4F82
:104880008081909117019823A1F0609108067091A2
:10489000090680910A06E12E0C2F292D4F2DF601D5
:1048A00009950E94AB1D462F282F672FC5010E9436
:1048B000D01CCF5FDECF81E0D03308F080E0DF9105
:1048C000CF911F910F91FF90EF90DF90CF90BF900D
:1048D000AF909F9008956F927F928F929F92AF9228
:1048E000BF92CF92DF92EF920F931F93CF93DF93FC
:1048F0004C0180911601C82FCC0FCC0FC80FD5E00A
:10490000DC0FD13308F0D0E360910B0666958091FF
:10491000FF05909100060E94A01D182FCD1708F0EA
:1049200044C06C2E712CF301E35CFC4F90818091AC
:1049300017018923C1F1F301EE0FFF1FE352FD4F71
:10494000C080D12C80E7C81AD108F301EE0FFF1FF9
:10495000E252FD4FA080B12CE0E2AE1AB108CC9C2F
:104960009001CD9C300D300D1124AA9CC001AB9C50
:10497000900D900D1124820F931F0E943F1D082F50
:10498000609108067091090680910A06E12E950152
:10499000A601F40109950E94AB1D462F282F672F11
:1049A000C3010E94D01CCF5FB9CF81E0D03308F0A3
:1049B00080E0DF91CF911F910F91EF90DF90CF902A
:1049C000BF90AF909F908F907F906F900895CF92FF
:1049D000DF92EF92FF920F931F93CF93DF937C01AF
:1049E00080911601C82FCC0FCC0FC80FD5E0DC0F7B
:1049F000D13308F0D0E360910B0666958091FF05F6
:104A0000909100060E94A01D182FCD1778F5CC2E8E
:104A1000D12CF601E35CFC4F908180911701892332
:104A200019F1F601EE0FFF1FE252FD4F208130E039
:104A300020523109F601EE0FFF1FE352FD4F408176
:104A400050E0405751096091080670910906809125
:104A50000A06012FF70109950E94AB1D462F282F4A
:104A6000672FC6010E94D01CCF5FCFCF81E0D0332B
:104A700008F080E0DF91CF911F910F91FF90EF90B0
:104A8000DF90CF900895DF92EF92FF920F931F93E4
:104A9000CF93DF937C0190911601C92FCC0FCC0FDF
:104AA000C90FD5E0DC0FD13308F0D0E360910B06DD
:104AB000669566958091FF05909100060E94A01D65
:104AC000D82ECD17F0F40C2F10E0F801E35CFC4F6A
:104AD000808190911701982391F060910806709160
:104AE000090680910A062D2D4C2FF70109950E9489
:104AF000AB1D462F282F672FC8010E94D01CCF5F07
:104B0000E0CF81E0D03308F080E0DF91CF911F91BA
:104B10000F91FF90EF90DF900895CF93DF93EC011A
:104B200080EEFE01099581EEFE01DF91CF9109949F
:104B3000CF92DF92FF920F931F93CF93DF931F9239
:104B4000CDB7DEB7F82E8B0199830E946D13998142
:104B500081111CC0CF2CD92E01151105B1F0809107
:104B6000E80085FD0AC08091E8008E778093E80018
:104B70000E946D13882381F309C0F60181916F01B2
:104B80008093F10001501109E7CF80E00F90DF9191
:104B9000CF911F910F91FF90DF90CF9008951F93B9
:104BA000CF93DF93CDB7DEB7AA970FB6F894DEBFE9
:104BB0000FBECDBFE7EFF5E088E08E0F9091F100DA
:104BC00091938E13FBCF8091F805833009F460C078
:104BD00030F4813071F0823009F49CC0B3C08A3067
:104BE00009F488C08B3009F46BC0893009F0AAC081
:104BF00020C08091F705813A09F0A4C08091E800B7
:104C0000877F8093E8008091FB059091FC05892BBC
:104C100021F460E283ED95E003C060E080E090E085
:104C200070E00E9431158091E8008B778093E80056
:104C300089C08091F705813209F084C08091FB051D
:104C40009091FC05029708F07DC08091E800877F75
:104C50008093E8008091E80082FD05C08091F50511
:104C60008111F8CF6FC02091F3008091F20090E0A5
:104C7000922B029729F48091F1008B7F813021F4EF
:104C80008091F1008093D2058091E8008B7756C027
:104C90008091F705813A09F055C08091FB0590910C
:104CA000FC05892B09F04EC08091E800877F809336
:104CB000E8008091E80080FFFCCF8091150139C0A9
:104CC0008091F7058132F1F58091FB059091FC050B
:104CD000892BC1F58091E800877F8093E8000E94CE
:104CE0009F138091F905809315011092D0050E94C1
:104CF0000B2B28C08091F705813221F58091E800C7
:104D0000877F8093E8000E949F138091FA0580932B
:104D1000D10518C08091F705813AA1F48091E8008F
:104D2000877F8093E8008091E80080FFFCCF80912E
:104D3000D1058093F1008091E8008E778093E800A0
:104D40000E949F138091E80083FFD6C18091F705F0
:104D50009091F805492F50E04A30510508F0CCC138
:104D6000FA01E455FF4F0C94242E803821F082384C
:104D700009F0C2C108C08091F3059091F405992310
:104D800089F082600FC08091FB058F70873008F03A
:104D9000B3C18093E9008091EB0085FB882780F9FF
:104DA0001092E9009091E800977F9093E80080933B
:104DB000F1001092F10074C1282F2D7F09F09CC1E1
:104DC000882319F0823061F097C18091F905813014
:104DD00009F092C1933009F080E08093F4052EC071
:104DE0008091F90581112AC08091FB058F702FEF0A
:104DF000280F263008F080C18093E9002091EB0055
:104E000020FF1CC0933021F48091EB00806214C01D
:104E10009091EB0090619093EB0021E030E0A901CC
:104E200002C0440F551F8A95E2F74093EA001092A2
:104E3000EA008091EB0088608093EB001092E9001B
:104E40008091E800877F2FC1811156C11091F9052B
:104E50001F778091E3008078812B8093E30080911D
:104E6000E800877F8093E8000E949F138091E8000C
:104E700080FFFCCF8091E30080688093E3001111F4
:104E800002C082E001C083E08093F50535C18058FF
:104E9000823008F031C18091F9059091FA058C3D7E
:104EA00053E0950779F583E08A838AE289834FB7D7
:104EB000F894DE01139620E03EE051E2E32FF0E0AB
:104EC00050935700E49120FF03C0E295EF703F5FDD
:104ED000EF708E2F90E0EA3010F0C79601C0C096B8
:104EE0008D939D932F5F243149F74FBF8091E80048
:104EF000877F8093E8006AE270E0CE0101960E940D
:104F00003115BDC04091FB055091FC05292F332779
:104F100023303105B9F06CF42130310509F4FBC0C0
:104F20002230310509F0E8C08BE390E0E0E8F5E0DD
:104F300054C02132310509F433C02232310509F45D
:104F40003CC0DAC0992781309105D1F05CF4892BFF
:104F500009F0D2C0E3E0F6E0E4918E2F90E0E3E0C8
:104F6000F6E038C08230910599F0039709F0C4C08B
:104F7000EDECF5E0E4918E2F90E0EDECF5E02AC049
:104F8000EBEEF5E0E4918E2F90E0EBEEF5E022C041
:104F9000E3EDF5E0E4918E2F90E0E3EDF5E01AC04B
:104FA0004115510509F4BCC04130510509F0A4C0B8
:104FB00089E090E0EBEAF5E010C04115510509F4F5
:104FC000B4C04130510509F097C080EC90E0E0E8B2
:104FD000F4E003C0009709F48FC02091E800277F18
:104FE0002093E8002091FD053091FE052817390730
:104FF00008F4C90140E0009789F12091F5052223CA
:1050000009F43DC02530D9F12091E80023FD37C0D7
:105010002091E80022FD2FC02091E80020FFEBCF77
:105020004091F3002091F20030E0342B009759F0CA
:105030002830310540F444914093F10031960197B6
:105040002F5F3F4FF3CF41E02830310509F040E0BA
:105050002091E8002E772093E800CDCF4111CDCFED
:105060000AC08091F505882351F0853041F0809188
:10507000E80083FD04C08091E80082FFF2CF8091B8
:10508000E8008B778093E80037C08038A9F58091DD
:10509000E800877F8093E8008091F6058093F10017
:1050A0008091E8008E778093E8000E949F1324C0CF
:1050B000811122C01091F9051230F0F48091E800BE
:1050C000877F8093E8001093F6050E949F131111CB
:1050D00006C08091E30087FD02C081E001C084E04A
:1050E0008093F50542E061EC81E00E94BE1342E24C
:1050F00061EC82E00E94BE138091E80083FF1AC039
:105100008091E800877F8093E8008091EB008062C7
:105110008093EB000FC082E190E0EBEBF5E05DCF18
:1051200089E090E0E2E9F5E058CF80E490E0E0E447
:10513000F5E053CFAA960FB6F894DEBF0FBECDBFF1
:10514000DF91CF911F9108958091550582958F70C1
:1051500009F054C080915205882309F44FC0809112
:105160008705A091560560915005709151054091B9
:10517000530550915405B6E08A1709F43FC090E0FA
:1051800041155105C1F17F3F11F46F3FA1F1B89F67
:10519000F001B99FF00D1124E95AFA4F21817213E1
:1051A0002AC02081621327C02281211124C02381BB
:1051B00034812417350710F421503109241B350B95
:1051C000283C3105C0F4209155052F7020612093B3
:1051D000550526E0289FF001299FF00D1124E45A7F
:1051E000FA4F80818F708061808380E595E00E9416
:1051F00023030C94002401968770BECF08950E946B
:105200002323292F2F7092959F70E92FF0E032977A
:10521000EE30F105B8F4EA54FF4F0C94242E803F91
:1052200099F018F4803E70F40FC0843F59F40CC01C
:10523000803E50F0813F31F407C0822F86958695DD
:105240008695089580E0089581E00895BF92CF92F9
:10525000DF92EF92FF920F931F93CF93DF93CDB71F
:10526000DEB761970FB6F894DEBF0FBECDBF8C01DD
:1052700085E0F801DE011D9601900D928A95E1F717
:10528000D8013C9111962C9111971296EC9012979F
:105290001396CD90DC901497509150056091510574
:1052A0008091530590915405009709F44FC16F3FC9
:1052B00019F45F3F09F44AC1B0905205BB2009F4CC
:1052C000ECC040915505C816D90628F0F601E81B38
:1052D000F90BCF0104C0809590958C0D9D1DFF2486
:1052E000F394883C910548F0F12C407F09F09FC071
:1052F00080E595E00E94230321C1842F807F09F07F
:1053000044C0621312C0531310C0E1100EC04F709E
:1053100040614093550580E595E00E94230380910C
:105320005505D80115968C932EC0CD2819F12F3F25
:1053300011F43F3FF9F0FE2CE1101CC0809187056D
:105340004091560556E0841709F458C090E0589FE4
:10535000F001599FF00D1124E95AFA4F618126138B
:1053600006C06081361303C06281611103C00196DB
:105370008770E9CFFE2CEE2009F421C180915505FC
:10538000816080935505F12C1AC162130AC0531332
:1053900008C0E11006C080915505D80115968C9380
:1053A000B0C03D872E878D859E850E94FF2888236B
:1053B000D1F1EE20C1F120915505822F82958F7099
:1053C00090E0029774F08091500590915105988774
:1053D0008F831986DB86CA862C87CE0107960E94AA
:1053E000230386E0F801A0E5B5E001900D928A95CF
:1053F000E1F70E94A428FF24F394E1C03D872E87A3
:105400008D859E850E942323292F22952F7030E0C1
:10541000223031050CF0C7C09F7009F0C1C0805E1A
:10542000883008F4CCC0C8010E942303E4CF621383
:1054300014C0531312C0E11010C080915505F8013B
:105440008583C8010E94230386E0E0E5F5E0DF01E3
:105450001D928A95E9F7FB2CB2C03D872E878D857A
:105460009E850E94FF288823F1F2EE20E1F2209130
:105470005505822F82958F7090E002970CF4B1CF82
:1054800080915005909151059A8389831B82DD821A
:10549000CC822E83CE010196A2CFC816D90638F051
:1054A000C81AD90AB8ECCB16D10450F007C08095C1
:1054B00090958C0D9D1D883C910510F0F12C3EC0FF
:1054C000FE2CEE2009F4AFCF621327C0531325C082
:1054D0002091550520FD18C0822F82958F70482F8E
:1054E00050E04115510581F0F80125834F305105F9
:1054F00041F08F5F982F9295907F822F8F70892B2C
:105500008583C8010E94230386E0F801A0E5B5E089
:1055100001900D928A95E1F752C03D872E878D85C7
:105520009E850E94FF2881115CCF80915505816086
:1055300080935505C8010E94230341C0E0E5F5E0D2
:1055400086E0DF011D928A95E9F739C0EE2009F463
:105550006ACF3D872E878D859E850E94FF28F82E75
:10556000882309F460CF86E0F801A0E5B5E001905A
:105570000D928A95E1F780915005909151050E9416
:10558000232392959F70963041F480910D0691E00F
:10559000892780930D0690930C060E94A4280FC0C3
:1055A00081113DCF0CC0243031050CF03CCF9F70F1
:1055B00009F435CFF8019581907F09F030CF8F2D18
:1055C00061960FB6F894DEBF0FBECDBFDF91CF91CD
:1055D0001F910F91FF90EF90DF90CF90BF900895B3
:1055E0001092C5051092C4050E949C22E6EAF3E0E1
:1055F00086E0DF011D928A95E9F71092AC031092C4
:10560000CF050E947A2180E090E00E94AC1C80E0EF
:1056100090E00C94961C80911501882331F08091C4
:10562000930387FF02C08EE101C086E0E2E3F5E06C
:10563000DF011D928A95E9F70C94F02A882341F046
:1056400080959091D00589238093D0050C949C225D
:105650000895882339F09091D005892B8093D00547
:105660000C949C220895882309F463C0823869F45D
:105670000E94C21C81FF5DC069E380E395E00E9447
:10568000E4210E949C2269E30EC0833891F40E94B9
:10569000C21C80FF4EC063E580E395E00E94E421D8
:1056A0000E949C2263E580E395E00E94B9210C945E
:1056B0009C22843869F40E94C21C82FF3AC067E4CD
:1056C00080E395E00E94E4210E949C2267E4EBCFF6
:1056D0009CEF980F913A10F4682FE5CF90E2980F65
:1056E000983088F4877021E030E0A90102C0440FAF
:1056F000551F8A95E2F7CA0180959091D0058923BC
:105700008093D005D4CF9BE5980F933020F480E0B0
:1057100090E00C94AC1C98E5980F973120F480E051
:1057200090E00C94961C803F20F00E94C01F0C94C7
:105730007A210895CF93C82F0E94AD2BC93349F425
:105740002FEF87EE93E0215080409040E1F700C0BA
:1057500000008C2FCF910C94332B882309F416C1B1
:105760008238B1F40E94C21C81FD10C169E380E35C
:1057700095E00E94E4210E949C222FEF41EE54E02C
:10578000215040405040E1F700C0000069E317C0DD
:105790008338D9F40E94C21C80FDF8C063E580E321
:1057A00095E00E94E4210E949C228FEF91EE24E07C
:1057B000815090402040E1F700C0000063E580E3A5
:1057C00095E00E94B9210C949C228438B1F40E9487
:1057D000C21C82FDDBC067E480E395E00E94E42107
:1057E0000E949C224FEF51EE84E041505040804097
:1057F000E1F700C0000067E4E2CF9CEF980F913A18
:1058000030F4682F80E395E00E94E421DCCF90E241
:10581000980F983080F4877021E030E0A90102C031
:10582000440F551F8A95E2F7CA019091D005892B44
:105830008093D005C8CF9BE5980F933070F4853ADC
:1058400029F0863A31F083E890E005C081E890E0E5
:1058500002C082E890E00C94AC1C98E5980F973158
:1058600008F08EC0883A09F445C0893A09F445C069
:105870008A3A09F445C08B3A09F445C08C3A09F4D8
:1058800045C08B3B09F445C08C3B09F445C08D3ABB
:1058900009F445C0803B09F445C08E3A09F445C07F
:1058A0008F3A09F445C0813B09F445C0823B09F4B5
:1058B00045C0833B09F445C0843B09F445C0853BA2
:1058C00009F445C0863B09F445C0873B09F445C04F
:1058D000883B09F445C0893B09F445C08D3B09F478
:1058E00045C08E3B09F445C08A3B09F445C080E0C1
:1058F00090E044C082EE90E041C089EE90E03EC06E
:105900008AEE90E03BC085EB90E038C086EB90E0FB
:1059100035C083EB90E032C084EB90E02FC087EB82
:1059200090E02CC08CEC90E029C08DEC90E026C07B
:1059300083E891E023C08AE891E020C082E991E009
:105940001DC084E991E01AC081E292E017C083E2B1
:1059500092E014C084E292E011C085E292E00EC0B1
:1059600086E292E00BC087E292E008C08FE690E00A
:1059700005C080E790E002C08AE292E00C94961C99
:10598000803F20F00E948A200C947A210895109282
:10599000B9008CE08093B8000895EF92FF920F93C6
:1059A0001F93CF93DF93182FEB011092BC0084EA72
:1059B0008093BC000E946E217C019091BC0097FDF9
:1059C0000EC0CF3F8FEFD807C1F30E946E218E1912
:1059D0009F098C179D0788F38EEF9FEF2EC0909143
:1059E000B900987F983041F09091B900987F90313C
:1059F00019F08FEF9FEF21C01093BB0084E88093D4
:105A0000BC000E946E218C019091BC0097FD0CC0DF
:105A1000CF3F8FEFD807C1F30E946E21801B910BFF
:105A20008C179D0788F3D8CF8091B900887F883183
:105A300011F08034F1F680E090E0DF91CF911F917A
:105A40000F91FF90EF9008950F931F93CF93DF93E3
:105A5000EB018093BB0084E88093BC000E946E2120
:105A60008C019091BC0097FD0EC0CF3F8FEFD807FF
:105A7000C1F30E946E21801B910B8C179D0788F348
:105A80008EEF9FEF0CC02091B900287F81E090E05D
:105A9000283211F480E090E0919581959109DF9191
:105AA000CF911F910F9108950F931F93CF93DF9381
:105AB000EC0184E88093BC000E946E218C019091DF
:105AC000BC0097FD0EC0CF3F8FEFD807C1F30E94F7
:105AD0006E21801B910B8C179D0788F38EEF9FEF33
