:100000000C94DD020C94FA020C94FA020C94FA029D
:100010000C94FA020C94FA020C94FA020C94FA0270
:100020000C94FA020C94FA020C9422150C94F71317
:100030000C94AD220C94FA020C94FA020C94FA027D
:100040000C94FA020C94FA020C94FA020C94FA0240
:100050000C94FA020C940F220C94FA020C94FA02FB
:100060000C94FA020C94FA020C94FA020C94FA0220
:100070000C94FA020C94FA020C94FA020C94FA0210
:100080000C94FA020C94FA020C94FA020C94FA0200
:100090000C94FA020C94FA020C94FA020C94FA02F0
:1000A0000C94FA020C94FA020C94FA029D089D0832
:1000B000DB08DB0824094409180B710B8609720A56
:1000C000840A840AD50CD80CDB0CDE0CE10CE40CA1
:1000D000E70C12101710211015101A101F101D1008
:1000E0008812A212CE120F135A135D1362136513F6
:1000F00068136B136E137113741377137A137D13D4
:10010000801385138A138D139013E8270F28AF29C6
:100110000F28AF2957287A28AF2978298B29422A16
:10012000422A552A552A4B2A552A552A552A422A07
:10013000422A502A552A552A502A2E004C002A00BD
:10014000E100354100001E00140004001D61340070
:100150004D001F001A0016001B00E1042A002000B9
:1001600008000700060050002C00210015000900BF
:1001700019004F004A00220017000A000500000085
:100180006564500028000000000F0000E3004F00ED
:100190002800000000070000E20023001C000B0004
:1001A000110000002961240018000D001000520009
:1001B0004B0025000C000E00360051002C002600DC
:1001C00012000F0037002F002B00270013003342CE
:1001D000387130004E002D0031003468E5000151C7
:1001E00000002900010001000100010000003A00A8
:1001F0001E02200222020100035D3B001F022102B9
:1002000023020100C95C3C002F0226022F000100DE
:10021000CA5C3D003002270230000100025D3E0052
:100220003102350035020000C35C0100010000000E
:1002300001000000015D010001000000010000005C
:10024000C25C3F005200510024020000005D4000EB
:10025000240021001E00270001004100250022008B
:100260001F002700C55C4200260023002000630019
:10027000C65C430025022E0231002E00010044001E
:100280004500010001000100000001000100010023
:100290000100010000000100010001000100010057
:1002A000010001000100F200010001000100010055
:1002B000F000F1000100F400010001000100F30072
:1002C0000100F50001000100010001000100000033
:1002D0000100010001000000010000000100010018
:1002E0000100000001000000010001000100010008
:1002F0000100000001000100010001000100A9004F
:100300000100010001000100AC00AA00B6000100DC
:1003100001000100AB00A800010001000100010084
:1003200001000100010001000100AE000100010018
:1003300000000000000000000000000001010101B9
:10034000010101010102020202020202020303038F
:100350000303030304040404040505050505060658
:1003600006060607070707080808080909090A0A10
:100370000A0B0B0B0C0C0C0D0D0D0E0E0E0F0F10AF
:100380001010111112121313141415151616171735
:10039000181819191A1A1B1C1C1D1D1E1F1F20219D
:1003A0002122232324252526272828292A2B2C2CE3
:1003B0002D2E2F30313132333435363738393A3B00
:1003C0003C3D3E3F404142434445464748494B4CF3
:1003D0004D4E4F50525354555758595A5C5D5E60BC
:1003E0006163646567686A6B6C6E6F71727476774F
:1003F000797A7C7D7F8182848687898B8D8E9092AD
:10040000949597999B9D9FA1A2A4A6A8AAACAEB0D3
:10041000B2B4B6B9BBBDBFC1C3C5C8CACCCED0D3B8
:10042000D5D7DADCDEE1E3E6E8EAEDEFF2F4F7F95E
:10043000FCFF05010902A10185020901A1000509CE
:100440001901290515002501950575018102950100
:10045000750381010501093009311581257F950258
:100460007508810609381581257F95017508810673
:10047000050C0A38021581257F950175088106C093
:10048000C005010980A10185031A81002A83001695
:100490000100260300950175108100C0050C0901BB
:1004A000A10185041A01002A9C02160100269C0263
:1004B000950175108100C005010906A1018505059A
:1004C0000719E029E7150025019508750181020546
:1004D00007190029EF1500250195F0750181020526
:1004E000081901290595057501910295017503917A
:1004F00001C005010906A101050719E029E715005A
:10050000250195087501810295017508810105078E
:10051000190029FF150026FF0095067508810005C2
:100520000819012905950575019102950175039139
:1005300001C009023B00020100A0FA090400000109
:10054000030101000921110100012240000705817A
:100550000308000A09040100010300000009211139
:1005600001000122C0000705820320000A120110C9
:100570000100000008EDFE07130100010203010461
:10058000033000000016034500720067006F00444E
:10059000006F007800200045005A00000016034557
:1005A00000720067006F0044006F00780020004573
:1005B000005A000000040309040011241FBECFEFFD
:1005C000DAE0DEBFCDBF13E0A0E0B1E0E8E1F1E6A4
:1005D00002C005900D92AE36B107D9F726E0AEE61F
:1005E000B3E001C01D92A431B207E1F70E946E167C
:1005F0000C948A300C9400008F929F92AF92BF921D
:10060000CF92DF92EF92FF920F931F93CF93DF93DE
:10061000CDB7DEB728970FB6F894DEBF0FBECDBFBB
:10062000FC01F080118183819481892B11F40C9459
:10063000650C1F3F29F40FEFF01611F40C94650CB4
:100640006F0185E0DE01119601900D928A95E1F728
:10065000F601228189819A81222349F00E94152482
:10066000082F682F89819A810E948E2403C00E94DE
:100670006124082F26E0129FF001112434E5039F26
:10068000E00DF11D1124EF0DF11DEE0FFF1FE65CD3
:10069000FE4F05911491F60182810E3FFCE51F0784
:1006A00059F00F3F2CE5120709F446C0023C3CE527
:1006B000130709F09CC062C0882309F4E7C0909139
:1006C000810381E0890F8770987F853020F4892B22
:1006D0008093810302C0909381038091810387708E
:1006E000EFEF8E9FC001112495958795959587957D
:1006F0009927909389008093880090938B00809332
:100700008A0090938D0080938C00409181035091DA
:10071000820360918303709184038FE090E00E94D4
:100720001D2F6091C1057091C2058091C305909104
:10073000C4050E94B30FAAC0882309F4A7C0809102
:10074000810383FB222720F991E0922790FB83F914
:1007500080938103992329F040E060E080E00E94CB
:10076000CB1D40918103509182036091830370916E
:1007700084038FE090E00E941D2F88C0882311F42D
:100780000C94650C90911701809181039F3F59F45F
:10079000109217018F7E8093810340E060E080E03B
:1007A0000E94CB1D06C09FEF90931701806180933C
:1007B0008103409181035091820360918303709182
:1007C00084038FE090E028960FB6F894DEBF0FBE4A
:1007D000CDBFDF91CF911F910F91FF90EF90DF90F0
:1007E000CF90BF90AF909F908F900C941D2F0130B1
:1007F000FDE51F0781F030F401153DE5130709F40D
:100800007AC044C002309DE5190771F00330EDE570
:100810001E0771F13BC0882311F40C94650C81E034
:100820000E94D71D8CEA2CC0882311F40C94650C0F
:1008300081E00E94D71D86E580930A068FEF8093A2
:100840000B0680E880930C0628960FB6F894DEBF5E
:100850000FBECDBFDF91CF911F910F91FF90EF9011
:10086000DF90CF90BF90AF909F908F900C94CF1D52
:10087000882311F40C94650C81E00E94D71D8BE154
:1008800080930A068FEF80930B06DCCFF6018281FE
:10089000882381F0033EFCE51F0709F46CC008F0D3
:1008A0005FC0013E3CE5130709F053C010927D0381
:1008B0000E94411F17FFD3C0F6018281811161C0E0
:1008C0000B3CFCE51F0709F41FC108F437C1033DC9
:1008D0009CE5190709F465C308F06AC30F3CFCE501
:1008E0001F0709F48FC708F09DC70D3C3CE51307AF
:1008F00041F4F6018281882311F40C94650C81E0A7
:1009000014C00E3C1C4508F40BC1F60182818823FB
:1009100011F40C94650C8091090686958695825C8D
:100920008F73833008F446C182E028960FB6F8949E
:10093000DEBF0FBECDBFDF91CF911F910F91FF9012
:10094000EF90DF90CF90BF90AF909F908F900C94DE
:10095000D71D023E8CE5180709F0ACCF81E00EC030
:10096000043E9CE5190749F0053EECE51E0709F039
:10097000A1CF84E003C082E001C083E080937D03C7
:1009800097CF8091D20580936E031092D20580910B
:100990007D03813071F048F08230D1F08430F1F481
:1009A00086EE0E94CD2C88E117C082EE0E94E02CDA
:1009B00015C088E89CE00E94C02688E10E94E02CD7
:1009C00088E10E94662C88E79CE00E94C02606C051
:1009D00082EE0E94E02C87E50E94CD2C8FE39CE9FB
:1009E0000197F1F700C000007801E894F7F85CE0A7
:1009F000A52EB12CC7010A2C02C0969587950A94A2
:100A0000E2F7282F2F7041F0822F90E02A3010F467
:100A10004D9604C0069702C087E290E00E94CD2C5C
:100A200094E0A91AB108ECEFAE16EFEFBE0611F78D
:100A300080917D03813039F040F0823031F0843094
:100A400051F488E206C08CE204C082EE0E94662C5B
:100A500002C00E94CD2C80916E038093D205003F8E
:100A6000FCE51F07B1F180F4083D3CE51307C9F030
:100A7000093D8CE51807C9F1073D9CE51907C1F54B
:100A800026E241EE61EE10C0023FECE51E0749F19F
:100A900020F1033F2CE5120759F527E245EE66EEFB
:100AA00003C027E245EE65EEC60128960FB6F8941E
:100AB000DEBF0FBECDBFDF91CF911F910F91FF9091
:100AC000EF90DF90CF90BF90AF909F908F900C945D
:100AD0008A1F26E241EE60EEE7CF27E245EE64EEA4
:100AE000E3CF26E241EE62EEDFCF28E241E0DBCF4A
:100AF000F6018281882319F010926F03E1CE0B3C3E
:100B0000FCE51F0709F043C2F6018281882309F43E
:100B1000DCC620910D0630E1230F08F42FEF0BC047
:100B2000F6018281882309F4D0C620910D0630E1B8
:100B3000231B08F420E020930D0686CE033C3CE501
:100B40001307E9F4F6018281882309F4BEC6809177
:100B5000D205827279F128960FB6F894DEBF0FBEE7
:100B6000CDBFDF91CF911F910F91FF90EF90DF905C
:100B7000CF90BF90AF909F908F900C94E31D043C5A
:100B80008CE5180758F1073C9CE5190709F4E6C500
:100B900008F0F0C5053CFCE51F0709F4FEC508F0A8
:100BA00005C6F6018281882309F48FC68091D2059B
:100BB000827289F228960FB6F894DEBF0FBECDBFC1
:100BC000DF91CF911F910F91FF90EF90DF90CF9029
:100BD000BF90AF909F908F900C94F91D06319CE5CB
:100BE000190708F089C10230ECE51E0708F429C195
:100BF000F6018281882309F439C20E944A238111B7
:100C000002C00E9455230E9439239093940380933D
:100C100093030F30FCE51F0709F4CDC008F042C074
:100C200008303CE5130709F4A8C0F0F404309CE553
:100C3000190709F490C068F40230FCE51F0709F4B5
:100C400086C003301C4509F0D9C0809193038260AF
:100C5000D3C006303CE5130709F487C008F089C00B
:100C6000809193038860C8C00B309CE5190709F494
:100C700093C068F40930FCE51F0709F482C00A300C
:100C80001C4509F0BBC08091930388607EC00D3085
:100C90003CE5130709F484C008F085C080919303F4
:100CA0008D7FAAC0073F9CE5190709F457C050F58E
:100CB0000231FCE51F0709F486C068F400313CE509
:100CC000130709F47CC001311C4509F097C08091DD
:100CD00093038F7B91C004319CE5190709F483C00D
:100CE00008F475C005311C4509F088C08091930354
:100CF00082FB222720F991E0922790FB82F990FB5A
:100D000083F97AC00A3F2CE5120709F450C058F461
:100D1000083F8CE5180729F1093F1C4509F06EC012
:100D2000809194035CC00C3FECE51E0709F454C0AD
:100D300070F10D3F1C4509F061C080919403982F1C
:100D4000909591708E7F892B90FB81F949C080919D
:100D50009303816051C08091930317C080919403E5
:100D600019C08091940382603BC08091930380619D
:100D700043C08091930380623FC08091930380645D
:100D80003BC080919303806837C0846035C08091F8
:100D900094038260816024C0809193038E7F2CC075
:100DA0008091930317C080919303877F25C0809122
:100DB00094038D7F15C0809193038F7E1DC0809119
:100DC00093038F7D19C0809193038F7715C0809115
:100DD0009303877F8B7F10C0809194038D7F8E7FDC
:100DE000809394030BC08091930387FB222720F903
:100DF00091E0922790FB87F980939303609193038E
:100E00001091940384E090E00E940B2F612F81E207
:100E100090E00E940B2F1092D20528960FB6F894FE
:100E2000DEBF0FBECDBFDF91CF911F910F91FF901D
:100E3000EF90DF90CF90BF90AF909F908F900C94E9
:100E40003E2C0115FCE51F0709F044C0F601828124
:100E5000882309F43AC51092D2050E943E2CFFEF78
:100E600004E31CE0F15000401040E1F700C0000036
:100E7000F89481E08093E00080E28093D8001092A3
:100E8000C9008FE19EE40197F1F700C000001DBA90
:100E9000109268001CBC10BE1FBA10927A0010920B
:100EA0006E0010926F0010927100109272001092FA
:100EB000C9001092BC0014B817B81AB81DB810BAFF
:100EC0001092BC0015B818B81BB81EB811BA0C9413
:100ED000003FFBC401301C4509F0C8C0F601828107
:100EE000882309F4F2C48091B003982F909590FB69
:100EF00080F98093B003E9C406313CE51307A9F5F6
:100F00009091D205F6018281882381F09A7A81E05E
:100F100009F480E080937003811102C069E201C08E
:100F200065E382E395E00E9401230BC0809170038A
:100F3000811102C069E201C065E382E395E00E948D
:100F4000D62228960FB6F894DEBF0FBECDBFDF9134
:100F5000CF911F910F91FF90EF90DF90CF90BF90B6
:100F6000AF909F908F900C94CF23023C1C4509F0CA
:100F70007DC0F6018281882309F4A7C490910906F7
:100F800081E0892780930906109208015DCC0C3C12
:100F90002CE5120708F479C0033D9CE5190709F018
:100FA0002BC4F6018281882309F48FC488E1BDCC6B
:100FB0000D3DFCE51F0749F4F6018281882309F401
:100FC00084C482E08093BF0380C40E3D2CE51207E9
:100FD00050F5053D3CE5130739F4F601828188237D
:100FE00009F473C483E2A1CC053D8CE5180780F4B5
:100FF000F6018281882309F468C4809109068695E8
:101000008695895D8F73893008F4D4CD89E18DCCC4
:101010000C3D1C4559F5F6018281882309F455C41D
:101020001092BF0352C40E3DECE51E07C9F4F60151
:101030008281882309F449C428960FB6F894DEBF4C
:101040000FBECDBFDF91CF911F910F91FF90EF9019
:10105000DF90CF90BF90AF909F908F900C945523CE
:10106000C801875F9C45079708F4C2CDF6018281CD
:1010700000811181882331F1C8010E941524F82EC6
:10108000682FC8010E948E2421C0033C3CE5130751
:1010900009F458CD08F077CD06319CE5190708F022
:1010A00053C30230ECE51E0708F0A2CD0115FCE5A4
:1010B0001F0709F4CBCE01301C4509F40FCFF60110
:1010C00000811181C8010E946124F82EB8018F2D82
:1010D0000E943A0D182F382FF601258122952F7086
:1010E000028101111092C7058091C5058770A9F092
:1010F000002399F080E2810F883078F082E02F831E
:1011000038879E830E94EF248091C5058770EE2466
:10111000E3942F8138859E818111E12CA92EA29420
:101120004FE0A422B12CFCE0AF16B10408F0D9C204
:10113000F501EA5AFF4F0C94572F892F807F9F703B
:10114000F92E882319F0F29480EFF8220023B9F0E9
:10115000FF2009F457C280E2810F883010F031116E
:1011600006C09091D205F92AF092D20505C090915F
:10117000C705F92AF092C7050E94CF2343C2812FE9
:1011800038870E94662C3885FF2009F4AAC2105EB9
:10119000F094183010F0311106C09091D205F92268
:1011A000F092D20505C09091C705F922F092C705CB
:1011B0000E94CF2396C2492F407F892F8F704032E3
:1011C00011F08295807F332319F03130E9F025C08A
:1011D000002381F03091C805222351F0213041F4E1
:1011E000982F932B391709F47CC29093C80579C2C4
:1011F000832B17C0222319F0213009F472C28E8389
:101200000E94C9238E811DC0002321F0223008F0E6
:1012100068C207C0211165C214C0002329F0211142
:10122000F1C10E945C2C5DC2222359F0193309F0F0
:10123000FBC10FEF27EE33E0015020403040E1F7D3
:10124000F1C10E94512C4DC2292F2695269523705D
:1012500030E02115310521F02130310559F041C22E
:10126000002319F0812F937002C080E090E00E946B
:10127000A91D40C2002319F0812F937002C080E0A5
:1012800090E00E94931D36C20023F9F0153F51F003
:10129000163F71F0143FA9F480917103909172038D
:1012A00081600BC08091710390917203826005C0D0
:1012B0008091710390917203846090937203809384
:1012C0007103812F0E94A7211EC0153F51F0163FC8
:1012D00071F0143FA9F480917103909172038E7F95
:1012E0000BC080917103909172038D7F05C0809136
:1012F0007103909172038B7F9093720380937103BB
:10130000812F0E94DD200E949722F4C1892F8370D3
:1013100009F070C00111ECC1812F8295869587700C
:10132000880F880F412F4F7050E060E070E04A0155
:101330005B01082E04C0880C991CAA1CBB1C0A94D3
:10134000D2F714FF12C00FE010E020E030E004C03C
:10135000000F111F221F331F8A95D2F7B901A80170
:10136000409550956095709503C040E050E0BA01FB
:10137000969596959370892F90E08230910529F18A
:1013800083309105C9F00091C9051091CA052091DB
:10139000CB053091CC05019759F0482959296A2984
:1013A0007B29CB01BA0160237123822393230AC0D6
:1013B000802A912AA22AB32ACB01BA016829792965
:1013C0008A299B290E94292593C1482959296A29DC
:1013D0007B298091C9059091CA05A091CB05B09158
:1013E000CC058A019B01082719272A273B27C90119
:1013F000B801E8CF002319F0892F817001C08695CC
:10140000882309F475C1812F829586958770880F8E
:10141000880F412F4F7050E060E070E04A015B019F
:10142000082E04C0880C991CAA1CBB1C0A94D2F775
:1014300014FF12C00FE010E020E030E004C0000F05
:10144000111F221F331F8A95D2F7B901A8014095B9
:1014500050956095709503C040E050E0BA019695B4
:1014600096959370892F90E082309105E9F0833052
:10147000910579F10091C1051091C2052091C30534
:101480003091C405019759F0482959296A297B29C7
:10149000CB01BA01602371238223932320C0802AC9
:1014A000912AA22AB32A15C0482959296A297B29D9
:1014B0008091C1059091C205A091C305B091C4056A
:1014C0008A019B01082719272A273B27C901B80150
:1014D00006C0CB01BA01682979298A299B290E9473
:1014E000BE2406C19F70F92E002339F0892F0E9477
:1014F0000825812F0E945C2CFBC0812F0E94512C5B
:101500008F2D0E94CA24F4C0812F323FC9F128F4E4
:10151000303F49F0313F79F170C0333FC1F1343F82
:1015200009F44DC06AC0002311F12111DAC0292F3E
:101530002F7181E090E0A0E0B0E0AC01BD0104C0FB
:10154000440F551F661F771F2A95D2F78091C1055A
:101550009091C205A091C305B091C4058A019B0179
:10156000082719272A273B27C901B80125C022309F
:1015700008F0B7C0DCCF002329F0892F8F712EC06F
:101580000023D9F3892F8F710E94CA24AAC0002397
:1015900081F0292F2F7181E090E0A0E0B0E0BC0144
:1015A000CD0104C0660F771F881F991F2A95D2F7B7
:1015B00003C060E070E0CB010E94BE2492C0002313
:1015C00081F0192F1F71812F0E94082528E0129F9A
:1015D000C001112483608093C505812F0E940825D6
:1015E00080C081E02F830E94EF242F81223008F4F5
:1015F00078C082E00E94EF2474C0002339F02223D7
:1016000009F4BBCF812F0E94E02C6BC0222309F488
:10161000B9CF893349F43FEF87EE93E031508040F2
:101620009040E1F700C00000812F0E94662C59C055
:10163000323FB1F028F4303F49F0313FF9F028C093
:10164000343FB9F058F0353F71F022C0002309F45F
:1016500051C090910F0681E0892708C081E00827DA
:1016600000930F0647C0011145C081E080930F062B
:1016700041C001113FC010920F063CC0002329F069
:1016800080910E06882329F329C0222311F332C04A
:1016900080910E062223C1F0882341F090910F061D
:1016A00081E0892780930F0610920E06812F002378
:1016B00019F00E94E02C1EC00E94662C86E0F60104
:1016C00011928A95E9F716C08823A1F0011112C082
:1016D00090910F0681E0892780930F0610920E06E5
:1016E00009C0F8E0AF1AB10804E0A016B10410F484
:1016F0000E94BF1DEE2009F4E8C08091C50580FD61
:10170000E4C0F60112828595859585950E9408258D
:10171000C6010E94FC028091C50585958595859539
:1017200028960FB6F894DEBF0FBECDBFDF91CF91E4
:101730001F910F91FF90EF90DF90CF90BF90AF90EF
:101740009F908F900C94CA2406313CE5130709F44E
:10175000D7CB023C1C4509F40CCCB1CCF6018281FC
:10176000882309F4B2C020910B0630E1230F08F45E
:101770002FEF10C0093C3CE5130719F170F5F60195
:101780008281882309F4A1C020910B0630E1231B3C
:1017900008F420E020930B0657C8F60182818823C5
:1017A00009F493C080910A06885F08C0F60182811F
:1017B000882309F48AC080910A06885080930A061B
:1017C00043C8F6018281882309F47FC020910C066A
:1017D00030E1230F08F42FEF0BC0F601828188233C
:1017E00009F473C020910C0630E1231B08F420E0BB
:1017F00020930C060C942404043DECE51E0708F429
:101800006DC845C0F6018281882309F45EC08091CD
:10181000090686958695865C8F73823008F4CAC95E
:1018200086E083C8013D9CE5190781F4F6018281B9
:10183000882309F44AC080910906869586958F5CB5
:101840008F73853008F4B6C98FE06FC8023D1C4520
:1018500078F4F60182818823C1F18091090686958A
:101860008695895C8F73853008F4A4C989E05DC8CA
:10187000F6018281882349F1809109068695869533
:10188000855D8F73823008F495C985E14EC80D3DA2
:10189000FCE51F0709F490CB60F4053D3CE5130718
:1018A00009F49BCB08F4A4CB0C3D1C4509F4B3CB45
:1018B00006CC0E3DECE51E0709F4B9CBC801875FE5
:1018C0009C45079708F494C9FACB28960FB6F8946C
:1018D000DEBF0FBECDBFDF91CF911F910F91FF9063
:1018E000EF90DF90CF90BF90AF909F908F90089532
:1018F000282F277081E090E001C0880F2A95EAF731
:1019000080959091C70589238093C7050C94CF23B8
:10191000282F277081E090E001C0880F2A95EAF710
:101920009091C705892B8093C7050C94CF23CF9343
:10193000E82F873080F58091090190910A01892B69
:1019400009F047C0CE2F64E670E080E40E94002ECC
:1019500090930A0180930901892BD1F464E670E029
:1019600082E10E94572E90930A0180930901892BEE
:1019700079F481E090E001C0880FCA95EAF764E647
:1019800070E080950E94572E90930A018093090180
:10199000CF910C94D32E90E0FC013797E730F105FE
:1019A000C0F4EE59FF4F0C94572F209A289811C07D
:1019B000219A29980EC0229A2A980BC0239A2B9814
:1019C00008C0529A5A9805C0539A5B9802C03E9A32
:1019D0004698CF910895CF93873008F03FC080910B
:1019E000090190910A01892B09F041C064E670E079
:1019F00080E40E94002E90930A0180930901892BB4
:101A000011F0C0E027C064E670E083E10E94572E29
:101A100090930A0180930901892B99F764E670E09D
:101A200081E40E94002E90930A0180930901892B82
:101A300041F784E690E00E94872E97FF05C09093BF
:101A40000A0180930901DDCFC82FC09510920A01C9
:101A5000109209010E94D32E8C2F0AC09FB18FB122
:101A6000807F869586959370892B809501C080E054
:101A7000CF910895CF93DF9326E0729FF001112458
:101A800034E5839FE00DF11D1124E60FF11DEE0FEB
:101A9000FF1FE65CFE4FC591D491CE01C238D1053F
:101AA00069F1B0F4C133D10509F475C048F4C93205
:101AB000D10509F469C0CA32D10509F473C079C0EF
:101AC000C533D10509F459C0C933D105B9F071C086
:101AD000C33ED10571F138F4C03ED105B1F0C23E2C
:101AE000D10511F166C0C63ED105B9F1C73ED10599
:101AF000C9F1C43ED10509F05CC024C02091930314
:101B000020FD29C221FD27C22BC22091930320FD75
:101B10001CC22091940320FF23C28091930384FD73
:101B2000C6C183EE90E01CC22091930322FF18C22D
:101B3000F4CF8091930382FD0BC28091940380FDCA
:101B40000AC2EBCF2091940321FF0AC28091930334
:101B500084FDADC187EE90E003C22091930323FF83
:101B6000FFC1F4CF8091930383FDF8C1809194036A
:101B700081FFECCF84EE90E0F3C12091930325FF29
:101B8000EFC189E290E0ECC12091930325FFE8C109
:101B900085E390E0E5C12091930326FFE1C18AE24D
:101BA00090E0DEC12091930326FFDAC181E390E04B
:101BB000D7C1C11540E5D40708F047C0C11520E4DE
:101BC000D20708F034C1C83ED10518F5C03ED10592
:101BD00008F0C6C1C83AD10570F4C53AD10508F07D
:101BE000B1C0C130D10509F4BBC108F460C124976C
:101BF00008F45DC1B5C1CF3BD10508F4AEC0C03C0F
:101C0000D10508F454C1FE01EE0FFF1FEE54FE4F44
:101C100003C1C11530E2D30760F4C11541E0D40718
:101C200008F09EC1C03FD10508F441C1CE019065C6
:101C300097C1C11580E3D80708F0F1C0FE01FF701D
:101C4000EE0FFF1FEE5CFC4FE7C0C11595E5D9070D
:101C500008F044C0C11524E5D20708F002C1C1153F
:101C600032E5D30710F5C11541E5D40708F0E4C00B
:101C70008C2F837021E030E002C0220F331F8A9541
:101C8000E2F73C68CE0174E0969587957A95E1F786
:101C90008370382BEC2FEF70E695E69540E2E49FD9
:101CA000C0011124822B932B5BC12C2F26952695E6
:101CB000AE0143705527C115D34508F0C3C080E27B
:101CC000289F9001112481E090E002C0880F991FA5
:101CD0004A95E2F7822B932B9C6842C1C1159AE585
:101CE000D907A8F4C11529E5D20708F0C9C0C11564
:101CF00036E5D30708F4BBC0C11548E5D40708F49E
:101D0000D6C0FC2FEE27CF01806F906A29C1C11584
:101D10008BE5D80708F4CBC0C1159CE5D90708F4BA
:101D2000C2C0CE0190568115904208F0C0C08D2FE0
:101D30008F710E94471FFE01FF27F0628F719F0184
:101D4000382BAFC0C53AD10509F4B4C0C63AD105A5
:101D500009F0B3C082E890E403C1C83AD10509F4A0
:101D6000AFC0C93AD10509F4AEC0CA3AD10509F4E9
:101D7000ADC0CB3AD10509F4ACC0CC3AD10509F4D9
:101D8000ABC0CB3BD10509F4AAC0CC3BD10509F4CB
:101D9000A9C0CD3AD10509F4A8C0C03BD10509F4CA
:101DA000A7C0CE3AD10509F4A6C0CF3AD10509F4AF
:101DB000A5C0C13BD10509F4A4C0C23BD10509F4BB
:101DC000A3C0C33BD10509F4A2C0C43BD10509F4AB
:101DD000A1C0C53BD10509F4A0C0C63BD10509F49B
:101DE0009FC0C73BD10509F49EC0C83BD10509F48B
:101DF0009DC0C93BD10509F49CC0CD3BD10509F478
:101E00009BC0CE3BD10509F49AC0CA3BD10509F469
:101E100099C080E094E4A4C085919491A1C0CE01C2
:101E20009927D3FF02C0986C9BC0906C99C0FE01AB
:101E3000FF70CF01906A94C0FC2FEE27CF01816F15
:101E4000906A8EC090E2299F9001112481E090E079
:101E500002C0880F991F4A95E2F7822B932B9A684C
:101E60007FC0FC2FEE27CF01846F906A79C08C2F42
:101E70000E94471F8F7190E0982F8827906270C052
:101E80008C2F8F700E94471FFE0194E0F695E79516
:101E90009A95E1F7EF70F0E0FE2FEE27F0699F01D1
:101EA000282BC9015DC0CE019927906659C080E0FA
:101EB00090E056C081E890E453C083E890E450C0BD
:101EC00082EE94E44DC089EE94E44AC08AEE94E434
:101ED00047C085EB94E444C086EB94E441C083EBB7
:101EE00094E43EC084EB94E43BC087EB94E438C0B8
:101EF0008CEC94E435C08DEC94E432C083E895E436
:101F00002FC08AE895E42CC082E995E429C084E9D1
:101F100095E426C081E296E423C083E296E420C0E3
:101F200084E296E41DC085E296E41AC086E296E457
:101F300017C087E296E414C08FE694E411C080E7EE
:101F400094E40EC08AE296E40BC089E390E008C0F6
:101F500082EE90E005C080EE90E002C086EE90E058
:101F6000DF91CF910895CF92DF92EF92FF920F937E
:101F70001F936C01EE24FF24C114D104E104F10489
:101F800011F0E0E103C06B017C01E0E033272F2D6D
:101F90001E2D0D2D011511052105310519F0E85FE4
:101FA0006801790197018601F4E036952795179528
:101FB0000795FA95D1F7011511052105310519F09D
:101FC000EC5F680179019701860152E0369527950B
:101FD000179507955A95D1F701151105210531057A
:101FE00019F0EE5F68017901970186013695279512
:101FF00017950795012B022B032B09F0EF5F5698DD
:102000005E9825982D9826982E9827982F980E2F11
:1020100010E0F8013197E730F105A8F4E759FF4FD8
:102020000C94572F259A2D9A0EC0259A2D9A269AF0
:102030002E9A09C0259A2D9A04C0259A2D9A269A7F
:102040002E9A279A2F9A1F910F91FF90EF90DF9071
:10205000CF90089580E290E090930A018093090167
:1020600080917A0381110EC00E94FA2D81E0809345
:102070007A032FEF83ED90E3215080409040E1F709
:1020800000C0000064E670E080E40E94002E90939F
:102090000A0180930901892B09F04EC064E670E0C3
:1020A00080E00E94572E90930A0180930901892BAA
:1020B00009F042C064E670E080E00E94572E9093E1
:1020C0000A0180930901892BB9F564E670E08FE37A
:1020D0000E94572E90930A0180930901892B61F584
:1020E0000E94D32E64E670E080E40E94002E90935C
:1020F0000A0180930901892BF9F464E670E08CE011
:102100000E94572E90930A0180930901892BA1F414
:1021100064E670E080E00E94572E90930A0180935D
:102120000901892B49F464E670E08FE30E94572E81
:1021300090930A01809309010E94D32E8091090196
:102140000895CF93DF9356985E9825982D982698FA
:102150002E9827982F98C8E8D0E08FEF90E09983C9
:102160008883AAE8B0E011969C938E93ECE8F0E0A7
:1021700091838083259A2D9A2FEF80E792E021505A
:1021800080409040E1F700C00000269A2E9A2FEF81
:1021900080E792E0215080409040E1F700C00000CD
:1021A000279A2F9A2FEF80E792E0215080409040AD
:1021B000E1F700C0000025982D982FEF80E792E00E
:1021C000215080409040E1F700C0000026982E98F2
:1021D0002FEF80E792E0215080409040E1F700C06F
:1021E000000027982F988091810387702FEF829F9E
:1021F000C001112495958795959587959927998381
:10220000888311969C938E939183808356985E98D1
:1022100025982D9826982E9827982F98DF91CF9162
:10222000089584B1807F84B985B1807F85B98AB1F2
:10223000837F8AB98BB1837F8BB93E984698089586
:1022400080B38C7080BB81B3836F81BB08954F9244
:102250005F926F927F928F929F92AF92BF92CF9236
:10226000DF92EF92FF920F931F93CF93DF931F9212
:10227000CDB7DEB78091090190910A01892B91F0C9
:10228000809179038F5F8093790381110BC00E9445
:102290002A1090E090930A0180930901892B11F490
:1022A0000E94A11035E8E32E33E0F32E4CE8C42E53
:1022B00043E0D42E5701912C10E007E0090D892D41
:1022C0000E94970C802F0E94970C892D0E94EB0C86
:1022D000D5019C91981721F08C938824839401C098
:1022E000812C802F0E94EB0CF6019081981719F039
:1022F000808381E001C080E08829182B0E941111A1
:102300009394FFEFAF1ABF0A2FEFC21AD20A37E039
:102310009312D3CF0E948B226AEF70E00E942F2F7E
:10232000BC01482F809174038823D9F11092740363
:10233000E0917B03F0917C03DF011E9690E08BEF30
:102340002AEFA22EB12C20812B3F99F0C22ED12C46
:10235000421720F09B012C193D0905C095012C194D
:102360003D09260F371F2E31310514F0808301C03F
:1023700091E03196EA17FB0731F79093740311113E
:1023800002C0911110C01092730360917B03709191
:102390007C0390917403E8E9F3E080E03EE03E0FB7
:1023A00032C01111F0CF809173038111ECCF609195
:1023B00075037091760380917703909178030E9462
:1023C00035222FB7F894C090CD05D090CE05E0907F
:1023D000CF05F090D0052FBFC0927503D092760341
:1023E000E0927703F092780340900506509006063D
:1023F0006090070670900806AFEF4A165A066A0604
:102400007A06D1F43AC0D7012D917D01508152173F
:1024100049F0DB015C915B3F21F44C93208391E018
:1024200001C081E06F5F7F4F31963E13ECCF9093F8
:10243000740380937303BBCFAB01BC01662777277E
:102440004A015B0180949094A094B0948414950404
:10245000A604B70420F48FEF9FEFDC0106C0DB0178
:10246000CA01840D951DA61DB71D80930506909386
:102470000606A0930706B09308068091C103811158
:1024800009C090910906892F837021F0B92EB69466
:10249000B69401C0B12C809108018130A1F038F0D0
:1024A000823009F454C1833009F45EC16EC11092C8
:1024B0001601C0920106D0920206E0920306F09245
:1024C000040681E04EC180910701B81210C08091CE
:1024D0000906837090E02091060130E051E040E071
:1024E0008217930709F450E0252F342F02C021E012
:1024F00030E0822F8170809318018B2D90E0853120
:10250000910508F012C1FC01E059FF4F0C94572FC0
:1025100090911601232B09F408C1F92EFF0CFF0C32
:10252000F90E05E00F0D013308F000E3F01608F096
:10253000BDC020E040E060E08F2D90E00E94CD1D06
:10254000F394F4CF90911601D92EDD0CDD0CD90E49
:1025500005E00D0D013308F000E360910A0670916B
:102560000B0680910C060E94A81EF62EE82ED016AF
:1025700008F09CC0ED2DF0E0DF01A35CBC4F8C9116
:1025800090911701982341F02E2D4F2D672FCF01E9
:1025900079830E94CD1D7981D394E9CF8091160172
:1025A000A82EAA0CAA0CA80E35E03A0D313308F07B
:1025B00030E3D0900B06C0900C0620910D0600E48D
:1025C000029F012D1124A31628F5EA2CF12CF70106
:1025D000E35CFC4F8081909117019823C9F0F701CB
:1025E000EE0FFF1FE252FD4F908192959F70609118
:1025F0000A06099F600D11247D2D8C2D39830E94C0
:10260000A81E462F282F672FC7010E94CD1D398194
:10261000A394D9CF81E0303308F488C086C080917C
:102620001601D82EDD0CDD0CD80E05E00D0D0133A2
:1026300008F000E3F0900A0670910B06E0900C069B
:1026400080910D06682F66956695669580910106C6
:102650009091020679830E949D1E0E941B1E805845
:10266000982F97FD9195990F292F3E2D239F212D6E
:1026700011246F2D7981822F0E94A81EF62EE82E3C
:10268000D016A0F4ED2DF0E0DF01A35CBC4F8C91DF
:1026900090911701982341F02E2D4F2D672FCF01D8
:1026A00079830E94CD1D7981D394EACF81E00033F4
:1026B000E8F13BC086E39AE102C08AE09AE10E9419
:1026C000762634C08FE09BE11DC080EF9AE11AC0EE
:1026D00085ED9AE11CC08AEB9AE119C088E09AE185
:1026E000EECF8FEF99E1EBCF86EF99E1E8CF8BED5D
:1026F00099E1E5CF8CEC99E10AC08EE69EE102C03B
:1027000089EA9AE10E941A2611C085E99AE10E949D
:102710009E250CC08EE999E105C08CE699E102C0C6
:102720008EE299E10E943D2501C080E09091160162
:102730009F5F90931601811128C082E08093080169
:1027400080911801811121C0BB2051F01EC0B092B0
:102750000701809109068370809306010E945F1B28
:1027600083E08093080111C0609101067091020618
:1027700080910306909104060E9435226A3171050A
:102780008105910510F010920801812F0F90DF91C3
:10279000CF911F910F91FF90EF90DF90CF90BF905E
:1027A000AF909F908F907F906F905F904F90089523
:1027B000E8EDF0E080818E7F80831092E20010923D
:1027C000DA001092E100A0EEB0E08C9181608C9371
:1027D00080818F77808319BCA7EDB0E08C918E7FCC
:1027E0008C9380818F7E80831092C00308951F9206
:1027F0000F920FB60F9211242F933F934F935F9335
:102800006F937F938F939F93AF93BF93CF93DF93F8
:10281000EF93FF93C091E900CF708091EC00D82F27
:10282000D17080FDD0E81092E9008091F000877FA0
:102830008093F00078940E9402271092E900809122
:10284000F00088608093F000CD2BCF70C093E9003A
:10285000FF91EF91DF91CF91BF91AF919F918F91B8
:102860007F916F915F914F913F912F910F900FBE8C
:102870000F901F9018952091E4003091E50095E6A7
:102880004091EC00842F817040FF22C08091E800CD
:1028900080FD1CC08091F705882391F0853091F070
:1028A0008091EB0085FD10C04091E4005091E5005F
:1028B0004217530729F39A01915011F784E00895C4
:1028C00082E0089583E0089581E0089580E008950E
:1028D0004091E80042FFDECF08958091F90587FF1F
:1028E00011C08091E80082FD05C08091F70581113B
:1028F000F8CF11C08091E8008B770BC08091F7056D
:10290000882349F08091E80080FFF8CF8091E800AB
:102910008E778093E8000895982F973058F590931C
:10292000E900981739F07091EC002091ED0050917A
:10293000F00003C0242F762F50E021FF19C0309102
:10294000EB003E7F3093EB003091ED003D7F309304
:10295000ED003091EB0031603093EB007093EC00B0
:102960002093ED005093F0002091EE0027FF07C068
:102970009F5FD3CF8F708093E90081E0089580E05E
:102980000895CF92DF92EF92FF920F931F93CF9310
:10299000DF93C8EDD0E088818F7E8883E7EDF0E09B
:1029A00080818160808384E082BF81E08093C00366
:1029B00088818E7F888302EE10E0F80110821092E9
:1029C000DA0081EEC82ED12CF601108288818F7733
:1029D000888388818068888388818F7D888319BCFB
:1029E0001092F7051092F8051092F6051092F50571
:1029F00090EEE92EF12CF70180818B7F8083888116
:102A00008160888342E060E080E00E948C14F601DF
:102A100080818E7F8083F8018081816080838081C6
:102A200088608083F70180818E7F808388818061C8
:102A30008883DF91CF911F910F91FF90EF90DF90EE
:102A4000CF9008951F920F920FB60F9211242F93DB
:102A50003F934F935F936F937F938F939F93AF9326
:102A6000BF93EF93FF938091E10082FF09C08091B3
:102A7000E20082FF05C08091E1008B7F8093E1003E
:102A80008091DA0080FF2AC08091D80080FF26C0A4
:102A90008091DA008E7F8093DA008091D90080FFE8
:102AA00018C080E189BD82E189BD09B400FEFDCF77
:102AB00081E08093F7058091C00381110FC00E94CF
:102AC000D8130E94C1148091E20084608093E200D8
:102AD00005C019BC1092F7051092C0038091E10067
:102AE00080FF17C08091E20080FF13C08091E20058
:102AF0008E7F8093E2008091E20080618093E2000B
:102B00008091D80080628093D80019BC85E08093C2
:102B1000F7058091E10084FF36C08091E20084FFD8
:102B200032C080E189BD82E189BD09B400FEFDCFDC
:102B30008091D8008F7D8093D8008091E1008F7EB6
:102B40008093E1008091E2008F7E8093E20080918B
:102B5000E20081608093E2008091F805882311F003
:102B600084E007C08091E30087FD02C081E001C0DE
:102B700083E08093F7051092D2050E943E2C0E94BC
:102B8000BF1D1092C1038091E10083FF27C0809197
:102B9000E20083FF23C08091E100877F8093E10002
:102BA00082E08093F7051092F8058091E1008E7F16
:102BB0008093E1008091E2008E7F8093E20080911B
:102BC000E20080618093E20042E060E080E00E94E9
:102BD0008C148091F00088608093F000FF91EF9159
:102BE000BF91AF919F918F917F916F915F914F9125
:102BF0003F912F910F900FBE0F901F90189520912D
:102C0000FF05309100062617370748F0611571055A
:102C100039F42091E8002E772093E80001C0B90133
:102C200040E061157105A9F12091F705222309F40F
:102C300043C0253009F442C02091E80023FD40C084
:102C40002091E80022FD32C02091E80020FFE9CF6A
:102C50004091F3002091F20030E0342BFC01CF01D1
:102C60006115710559F02830310540F48191809348
:102C7000F100615071092F5F3F4FF1CF41E02830E3
:102C8000310509F040E02091E8002E772093E8001C
:102C9000C8CF4111C9CF0AC08091F705882361F0E0
:102CA000853061F08091E80083FD0AC08091E800E2
:102CB00082FFF2CF80E0089582E0089583E00895D6
:102CC00081E008958091BF03811107C08091F705CD
:102CD000843011F081E0089582E00895CF93DF936E
:102CE000CDB7DEB72A970FB6F894DEBF0FBECDBFC3
:102CF00084B7877F84BF0FB6F894A8958091600051
:102D0000886180936000109260000FBE80E880931D
:102D100061001092610085B7806885BF85B78068C3
:102D200085BF0E94D8130E94C1148091E200846084
:102D30008093E20078948091F7058823A1F01091A8
:102D4000E9001F709091EC00892F817090FD80E860
:102D5000182B1092E9008091E80083FD0E94022761
:102D60001F701093E90082E084BD93E095BD9AEF57
:102D700097BD80936E000E942A1090E090930A0104
:102D8000809309010E9411110E942011A5E8B3E06F
:102D9000E8E9F3E01EE0E12EEE0E11921D92EE1234
:102DA000FCCF8EE090E00E945D2F80937B03909398
:102DB0007C03FC010E962BEF2193E817F907E1F74E
:102DC0000E944A23811102C00E9455230E94FA1BCF
:102DD0000E944A23811104C00E9455230E940F1EA5
:102DE00045E050E06CE170E089E096E00E94D72E6B
:102DF000809109068C7F11F40E940F1E8CE090E0F8
:102E00000E94E72E90E0A0E0B0E080937D039093D5
:102E10007E03A0937F03B093800389EA80938000B0
:102E200089E08093810024982C983F988AB18F7C08
:102E30008AB96E98479A8BB180638BB9769A8FE086
:102E400090E00E94EF2E6093810370938203809341
:102E500083039093840367708FEF869FB0011124E2
:102E60007595679575956795772770938900609339
:102E7000880070938B0060938A0070938D0060933C
:102E80008C009091810394FF03C08093170102C0CE
:102E9000109217010E94A1100E944A23811102C0C2
:102EA0000E94552382E090E00E94E72E8093B003B9
:102EB0000E943923909394038093930383E090E0DE
:102EC0000E94E72E682F70E080E090E00E942925A4
:102ED00080910906837011F410920801809109060F
:102EE0008C7F8160809309068BE091E0909396033C
:102EF00080939503FF24F39499249A94CC24C3944B
:102F0000D12C50E1452E62E1562E78E1A72EB12C4E
:102F1000E0E48E2E8091F705853009F052C040E044
:102F200060E080E00E94CB1DF092C1038091F70524
:102F3000843041F1109297030FB6F894A895A092AF
:102F400060000FBE8092600040E060E080E00E9480
:102F5000CB1DF092C10383B7817F846083BF83B7A9
:102F6000816083BF7894889583B78E7F83BF0FB6C7
:102F7000F894A89580916000886180936000109219
:102F800060000FBE8091F605882309F4C3CF0E942C
:102F90002A1090E090930A01809309010E94111178
:102FA0000E942011E8E9F3E01192EE12FDCF0E9499
:102FB0002711E8E9F3E081918111F2C0EE12FBCF15
:102FC000A9CF0E942711E1EBF3E0A8E9B3E000E00C
:102FD00010E0702F6D9121912627B1F180E090E0F3
:102FE00030E0782EA901082E02C0559547950A9425
:102FF000E2F740FF25C089837A83C60102C0880FAB
:10300000991F7A94E2F73C01862F90E08621972160
:1030100021E0892B09F420E02B830E948B22816020
:10302000782F9D838C8349815A816B818D810E9489
:10303000BD1CF801EF54FC4F80816826608219C0E6
:1030400001968630910569F60F5F1F4F0E3011050E
:1030500009F0BFCF9E829F8218860E948B228160DA
:10306000782F9A8789874E815F8168858A850E943B
:10307000BD1C8091AD039091AE030E9461229C0122
:103080009091AC03992321F02431310508F47CC0E0
:103090008091A8031091A90381110BC0111194C054
:1030A0002091AA03211190C02091AB0321118CC063
:1030B0006BC09F3F19F09F5F9093AC03181624F4E8
:1030C0000E9484218093A8038091A80387FF05C0F4
:1030D0000E94842181958093A803111624F40E94F4
:1030E00084218093A9038091A90387FF05C00E94D2
:1030F000842181958093A9033091A803332301F1A2
:103100002091A9032223E1F045EB3403C0011124EF
:10311000892F990F990B009719F08093A80302C08B
:10312000F092A80335EB2303C0011124892F990FD6
:10313000990B009719F08093A90302C0F092A9039C
:103140008091AA03181624F40E9462218093AA0396
:103150008091AA0387FF05C00E9462218195809318
:10316000AA038091AB03181624F40E946221809375
:10317000AB038091AB0387FF05C00E94622181955C
:103180008093AB030E9497221091AF030E94BF1D52
:10319000181709F4BFCE0E94BF1D8093AF03BACEAB
:1031A00049BC59BC09B400FEFDCF8091D8008F7D89
:1031B0008093D8008091E00082608093E00080914D
:1031C000E00081FDFCCFA6CE9F3F09F074CF7CCFFD
:1031D0008033910540F5880F991F880F991FFC01D6
:1031E000EF5DFE4F52813381808183707181A82F02
:1031F000B0E0E0E98E9FC001112488529C4FFC0191
:10320000E70FF11DB4976083FC01E50FF11DB49742
:103210004083830F911DFC01B4972083FD01EA5286
:10322000FC4F81E080830895FF920F931F93CF930B
:10323000DF93182F062FF42EC0E0D0E02F2D402F63
:10324000612FCE010E94E8182196C033D105B1F755
:10325000DF91CF911F910F91FF9008950F931F93CE
:1032600010E0F801EE0FFF1FE352FD4F90819057E1
:1032700097FD9195000F111FF801E252FD4FE0817B
:10328000F0E0B097DF01AA0FBB1F8D010E0F1F1FCB
:103290002003D001219FB00D1124E8E3F0E0E91BE9
:1032A000F10997FDF3959F01220F331F89010E0F3E
:1032B0001F1F40039001419F300D11242A0F3B1F17
:1032C00037FF02C021583F4F220F232F221F330BFD
:1032D000620F1F910F9108950F931F93522F10E0CB
:1032E000F801EE0FFF1FE252FD4FE081F0E0B097D2
:1032F000EE0FFF1F9F015203D001539FB00D112409
:10330000000F111FF801E352FD4F008110E000573C
:103310001109000F111F40039001419F300D11242E
:103320002A0F3B1F37FF02C021583F4F220F232F88
:10333000221F330B620F1F910F9108950F931F935C
:10334000522F10E0F801EE0FFF1FE252FD4FE08117
:10335000F0E0B0979F015203D001539FB00D1124AC
:10336000000F111FF801E352FD4F008110E00057DC
:10337000110940039001419F300D11242A0F3B1F7A
:1033800037FF02C021583F4F220F232F221F330B3C
:10339000620F1F910F910895EF920F931F9393E087
:1033A000099F80011124159507956E2D600F1F91BF
:1033B0000F91EF90089550E0FA01EE0FFF1FE252D7
:1033C000FD4F9081905297FD9195440F551FFA0142
:1033D000E352FD4F408150E0FA01E21BF1099F01E9
:1033E000290F311D97FD3A95620F0895E42FF0E003
:1033F000EE0FFF1FE252FD4F6081621B0895E42F24
:10340000F0E0EE0FFF1FE352FD4F6081621B089555
:10341000622F0895E42FF0E0EE0FFF1FE352FD4FFF
:10342000408134EE439F412D1124E82FF0E050E01D
:10343000445E5F4FDA01A21BB1099D01B7FF03C0D3
:1034400031952195310993E0220F331F9A95E1F7C9
:10345000AF01421B530B9A0157FF02C020E030E03E
:10346000582F259F212D1124822F0895E42FF0E05D
:10347000EE0FFF1FE352FD4F408134EE439F412D7D
:103480001124E72FF0E050E0445E5F4FDA01A21B09
:10349000B1099D01B7FF03C031952195310993E032
:1034A000220F331F9A95E1F7AF01421B530B9A018C
:1034B00057FF02C020E030E0279F212D1124722FFA
:1034C0000895FC01CB01309721F477FF2CC080E8F0
:1034D00008959F01F7FF04C0222733272E1B3F0BBF
:1034E000BC01621B730B280F391F97FD0DC0CB0168
:1034F00045E0880F991F4A95E1F7B9010E94432FD3
:1035000080E2861B682F09C0C90125E0880F991F3A
:103510002A95E1F70E94432F605A862FF7FF02C0D9
:1035200081950895089580E00895EF920F93CF93C9
:10353000DF93D72FC82FC9010E19BA010E94611A53
:10354000602F681B7D2F8C2FDF91CF910F91EF9013
:1035500008950F93CF93DF93D72FC82FC901BA01D6
:103560000E94611A682F600F7D2F8C2FDF91CF9101
:103570000F910895EF920F931F93CF93DF93D62F60
:10358000C72F182FC9010E19010FBA010E94611A25
:10359000081B019F012D11246D2F7C2F802FDF919F
:1035A000CF911F910F91EF900895EF920F931F937A
:1035B000CF93DF93D62F172FC82FC9010E19070FEE
:1035C000BA010E94611A081B702F719F712D11247E
:1035D0006D2F8C2FDF91CF911F910F91EF90089558
:1035E000FF920F931F93CF93DF93F62ED72F182FB1
:1035F000C901C12FC01BBA010E94611A982F880F00
:10360000980F2C2F291B219F212D11246F2D7D2FE9
:10361000822FDF91CF911F910F91FF900895FF921C
:103620000F931F93CF93DF93F62E172FD82FC90137
:10363000C72FC01BBA010E94611A982F880F980FDC
:10364000C91B7C2F719F712D11246F2D8D2FDF9140
:10365000CF911F910F91FF900895EF92FF921F93CA
:10366000CF93DF937B01182F110FC0E0D0E08C2F98
:103670008C5D8093C20320E030E0F901EC0FFD1F68
:10368000EE0DFF1D8081F901EE53FC4F81832F5F0A
:103690003F4F2031310589F724E630E041E150E029
:1036A00062EC73E0812F0E94AC2E6096C039D10588
:1036B000F1F6DF91CF911F91FF90EF9008958091E7
:1036C000D603882329F068ED73E084E70E942D1B60
:1036D0001092D6038091D703882329F068E674E01E
:1036E00087E70E942D1B1092D7030895E2ECF3E0C8
:1036F0006083418324E630E042E050E0BF01880F60
:103700000C94AC2EFF920F931F93CF93DF93E62F71
:10371000F0E0E45EFA4F90819923B1F0F82E82E157
:10372000689FE001112400E010E0F801EC0FFD1F9C
:10373000E850FB4F4081602F8F2D0E94761B0F5F5A
:103740001F4F0231110589F7DF91CF911F910F9122
:10375000FF900895CF93DF93C82F4BE06DEF0E9449
:10376000761B40E06AE08C2F0E94761B8FE39CE979
:103770000197F1F700C0000040E060E08C2F0E944C
:10378000761B40E061E08C2F0E94761B40E066E0F3
:103790008C2F0E94761B40E06DEF8C2F0E94761BD1
:1037A000D0E040E06D2F8C2F0E94761BDF5FD2317E
:1037B000C1F740E06D2F8C2F0E94761BDF5FD43263
:1037C000C1F740E06D2F8C2F0E94761BDF5FD43B4A
:1037D000C1F74BE06DEF8C2F0E94761B41E06AE051
:1037E0008C2F0E94761B40E06DEF8C2FDF91CF91E4
:1037F0000C94761B6F927F928F929F92AF92BF92A2
:10380000CF92DF92EF92FF920F931F93CF93DF93AC
:103810000E94FA2D84E70E94AA1B87E70E94AA1B38
:10382000E4E2EE2EE1E0FE2EC12CD12CF2E17F2E5F
:10383000A8E08A2E912CAA24A394B12C6624639428
:10384000F7013297608170E0CB0184973196C08197
:10385000D0E0A497D701EC91F0E0B497D601AA0F7D
:10386000BB1FAA0FBB1FAF5DBE4F2C91237030E072
:10387000AC0197FF02C0495F5F4F63E055954795E4
:103880006A95E1F7729E8001739E100D1124040F5A
:10389000111D08501B4FB4010E94432FA50102C007
:1038A000440F551F8A95E2F7CA01D8019C91892BD4
:1038B0008C93CE01D7FD079653E0959587955A9541
:1038C000E1F7729E8001739E100D1124080F111DE7
:1038D00008501B4FCE01B4010E94432FA50102C026
:1038E000440F551F8A95E2F7CA01D8019C91892B94
:1038F0008C93CF01F7FD079643E0959587954A9500
:10390000E1F7729EE001739ED00D1124C80FD11D06
:10391000C850DB4FCF01B4010E94432FA50102C064
:10392000440F551F8A95E2F7CA019881892B888335
:10393000F901E45EFA4F60825FEFC51AD50A84E0B0
:10394000E80EF11CA0E3CA16D10409F079CF60E0BB
:1039500084E70E94821B61E087E7DF91CF911F918E
:103960000F91FF90EF90DF90CF90BF90AF909F901E
:103970008F907F906F900C94821BEF92FF920F9329
:103980001F93CF93DF93CDB7DEB767970FB6F89449
:10399000DEBF0FBECDBF4B8B5C8B6D8B7E8B8F8B59
:1039A0000E891F8901151105C1F15F3F11F44F3FC9
:1039B000A1F1E42EF12CA1E0B0E0042E01C0AA0F89
:1039C0000A94EAF7852F90E0662319F020910F06FC
:1039D00006C09C012C5D3A4FF90120812A23222345
:1039E000A9F046E0489F9001499F300D1124F7014E
:1039F000E20FF31FEE0FFF1FEF51FE4F4081518189
:103A0000FC01EC5DFA4F9081A92B06C0FC01EC5D36
:103A1000FA4FA0958081A823A08386E0FE013D9601
:103A2000DF01982F1D929A95E9F74D875E876F8782
:103A3000198B088BDE01179601900D928A95E1F79C
:103A4000CE0107960E94592A811137C086E0FE01F7
:103A50003796DE01119601900D928A95E1F7FF816C
:103A6000E8856A857B856115710539F1EF3F11F4B1
:103A7000FF3F19F12091580530E0C9010196877088
:103A800099274091890550E08417950779F1F983CA
:103A9000EA837D836C8396E0929FD001939FB00D63
:103AA0001124A75ABA4FFE01319601900D929A95B2
:103AB000E1F7809358050E94332516E0809189052F
:103AC00090915805891711F1189FC0011124875A48
:103AD0009A4F0E94592A8823C9F08091890590E065
:103AE00001968770992780938905E8CF1092D205B7
:103AF0000E943E2C1092580510928905E2E5F5E0EF
:103B000086E0DF011D928A95E9F7D7CF67960FB659
:103B1000F894DEBF0FBECDBFDF91CF911F910F9103
:103B2000FF90EF9008952091220530912305821790
:103B3000930771F09093230580932205E0919503FC
:103B4000F0919603309721F00084F185E02D0994DF
:103B5000089520912005309121058217930771F077
:103B60009093210580932005E0919503F0919603B1
:103B7000309721F00680F781E02D09940895E091B7
:103B80009503F0919603309721F00190F081E02D9C
:103B9000099480E008950C9414190C94E81845E0F9
:103BA00050E06CE170E089E096E00C94FB2EE9E0D7
:103BB000F6E0880F880F90819370892B8083109294
:103BC00008010C94CF1D90910906892F8695869542
:103BD000815C8F739370882321F0880F880F892B65
:103BE00002C0892F806580930906109208010C9409
:103BF000CF1D90910906892F869586958F5F8F73CB
:103C00009370853120F4880F880F892B02C0892F8B
:103C1000846080930906109208010C94CF1DE9E09E
:103C2000F6E08DE2808311828FEF828383838FE7BA
:103C300084830C94CF1D482F982F46FD9095E92F33
:103C4000EF739F7046FD9F5FE295EF70EE0FF0E01F
:103C5000E75EFE4F2181299F802D212D1124829521
:103C60008F702295207F822B3081982F930F892F80
:103C700047FD819580580895BC018230910508F474
:103C80000895613E8EE1780748F49B0195E03695F2
:103C900027959A95E1F748E0420F01C04FEF91E078
:103CA000242F30E0290F311D35952795229FF001F3
:103CB000239FF00DF00D11246E177F0718F44FEFBE
:103CC000420F05C02F3F310539F091E0920F49179F
:103CD00038F78FEF890F08958FEF08950F931F9393
:103CE000CF93DF931F92CDB7DEB7182F47FD4195D5
:103CF000E8E3F0E0CF01841B910947FD9395889F8D
:103D0000F001899FF00DF00D1124229FC001239F27
:103D1000900D900D11248E0F9F1F79830E943C1EE1
:103D2000982F880F980F692F600F7981812F0F903E
:103D3000DF91CF911F910F91089520E030E0A9010C
:103D4000869F412D969F400D511D1124CA01089553
:103D5000CF92DF92EF92FF920F931F93CF93DF9357
:103D60007B01282F382FE82FF0E0F11006C0EE5C21
:103D7000FC4F6491762F862F7BC00F2D10E046E01C
:103D8000649FC0011124CFEFD0E0BE010E942F2F0D
:103D9000AB016BEA6403C001659F900D11248E0D89
:103DA000911D8E0D911D982F990F890FBE01601BDB
:103DB000710B6E9FD0016F9FB00D7E9FB00D1124CF
:103DC0009B2F8F9DB0011124672F77277E01E61A64
:103DD000F70AEE9EB001EF9E700DFE9E700D11244D
:103DE0006E01C81AD108C09E7001C19EF00CD09E11
:103DF000F00C11240F2D1127C01BD10BCE9F800179
:103E0000CF9F100DDE9F100D1124812F42305105E0
:103E100091F04CF441155105E1F041305105B9F4F0
:103E2000822F272F16C04430510569F044F04630E8
:103E3000510579F00CC0822F2B2F912F0AC02B2F08
:103E4000932F872F06C08B2F922F212F02C08B2FED
:103E5000972FE22FF0E0EE5CFC4F7491E82FF0E03A
:103E6000EE5CFC4F6491E92FF0E0EE5CFC4F849136
:103E7000DF91CF911F910F91FF90EF90DF90CF9046
:103E8000089560917D038CE090E00C940B2F90914D
:103E9000930392FF0DC0282F2871283019F4877FD3
:103EA000846006C0282F2471243011F48B7F886031
:103EB00093FF0DC0282F2871283119F4877E846163
:103EC00006C0282F2471243111F48B7E8861209143
:103ED000940320FF0DC0382F3871383019F4877FD4
:103EE000816006C0382F3171313011F48E7F8860C7
:103EF00021FF0DC0282F2871283119F4877E816198
:103F000006C0282F2171213111F48E7E886194FD25
:103F1000877E08950F931F93CF93DF93C62FD42FDF
:103F2000022FFC0182818823C9F060936F030E94F5
:103F30008B2290931F0580931E0580E28C0F8830A2
:103F400008F050C0C77081E001C0880FCA95EAF739
:103F5000DF91CF911F910F910C945C2C10916F0306
:103F6000161330C080911E0590911F050E9461229A
:103F7000883C910538F5C0E2CD0F1D17B9F080E2FD
:103F8000810F883040F4177081E001C0880F1A95C6
:103F9000EAF70E94512CC83048F481E09D2F9770B9
:103FA00001C0880F9A95EAF70E945C2C802F0E942E
:103FB000CD2CC830B8F4D77081E001C0880FDA95F5
:103FC000EAF70AC080E28C0F883060F4C77081E0A5
:103FD00001C0880FCA95EAF7DF91CF911F910F9129
:103FE0000C94512CDF91CF911F910F9108958091E6
:103FF000D4050895CF93DF9300D01F92CDB7DEB7DD
:104000002091F705243031F523E029838058910968
:104010009B838A8382E08093E9008FEF9091E80090
:10402000815095FD06C095ED9A95F1F7000081113C
:10403000F5CF8091E80085FF0DC040E050E063E0DF
:1040400070E0CE0101960E94CB268091E8008E7729
:104050008093E8000F900F900F90DF91CF9108951B
:104060000F931F93CF93DF9300D01F92CDB7DEB78E
:104070008C010E946216823011F0843021F584E0B8
:1040800089831B830A8382E08093E9008FEF9091FC
:10409000E800815095FD06C095ED9A95F1F7000076
:1040A0008111F5CF8091E80085FF0DC040E050E020
:1040B00063E070E0CE0101960E94CB268091E8007B
:1040C0008E778093E8000F900F900F90DF91CF9143
:1040D0001F910F910895CF93DF93EC010E94621618
:1040E000823011F08430F9F482E08093E9009FEF90
:1040F0008091E800915085FD06C085ED8A95F1F725
:1041000000009111F5CF8091E80085FF0CC040E0E0
:1041100050E066E070E0CE010E94CB268091E8007E
:104120008E778093E800DF91CF910895CF93DF934E
:10413000EC010E946216823011F08430D9F5809132
:104140001501882339F08091930387FF03C060E253
:1041500082E002C068E081E08093E9008FEF9091F7
:10416000E800815095FD06C095ED9A95F1F70000A5
:104170008111F5CF8091E80085FF1CC08091150169
:10418000811105C040E050E068E070E003C070E0DD
:1041900040E050E0CE010E94CB268091E8008E776F
:1041A0008093E80080E2FE01A5EDB5E001900D925C
:1041B0008A95E1F7DF91CF910895803F39F480919E
:1041C000A90387FF6CC01092A90369C0813F29F43D
:1041D0008091A9031816BCF362C09091A803823F96
:1041E00029F497FF5CC01092A80359C0833F19F4CB
:1041F0001916CCF354C0893F41F48091AA031816D4
:104200000CF04DC01092AA034AC08A3F29F4809155
:10421000AA0387FF44C0F6CF8B3F39F48091AB03EC
:1042200087FF3DC01092AB033AC08C3F29F48091C8
:10423000AB031816BCF333C0843F21F48091A7036D
:104240008E7F17C0853F21F48091A7038D7F11C019
:10425000863F21F48091A7038B7F0BC0873F21F419
:104260008091A703877F05C0883F31F48091A70321
:104270008F7E8093A70313C08D3F21F48091D105D9
:104280008E7F0BC08E3F21F48091D1058D7F05C0BC
:104290008F3F29F48091D1058B7F8093D105809148
:1042A000A80381110EC08091A90381110AC08091D9
:1042B000AA03811106C08091AB03811102C0109244
:1042C000AC0308958091D10580FD16C081FD16C014
:1042D00082FD18C08091AC03882391F0883290F45D
:1042E00028E0829FC001112468E270E00E94432F01
:1042F000862F672B29F007C082E0089584E0089597
:1043000081E0089588E008958091D10580FD17C06F
:1043100081FD17C082FD19C08091AC03882399F0FC
:104320008C3398F423E2829FC00111246CE370E087
:104330000E94432F862F672B49F481E0089588E07F
:10434000089581E1089585E0089583E20895803F0E
:1043500021F40E948421819504C0813F29F40E94A8
:1043600084218093A9030895823F21F40E9484212F
:10437000819504C0833F29F40E9484218093A8037F
:104380000895893F19F40E94622105C08A3F31F4E3
:104390000E94622181958093AA0308958B3F21F4A6
:1043A0000E946221819504C08C3F29F40E94622101
:1043B0008093AB030895843F21F48091A70381602B
:1043C00017C0853F21F48091A703826011C0863F0A
:1043D00021F48091A70384600BC0873F21F4809172
:1043E000A703886005C0883F31F48091A7038061EE
:1043F0008093A70308958D3F21F48091D1058160BA
:104400000BC08E3F21F48091D105826005C08F3FA3
:1044100029F48091D10584608093D1050895789422
:104420001F920F920FB60F9211248F939F93AF9309
:10443000BF938091CD059091CE05A091CF05B0910D
:10444000D0050196A11DB11D8093CD059093CE0599
:10445000A093CF05B093D005BF91AF919F918F915D
:104460000F900FBE0F901F901895CF92DF92EF9292
:10447000FF920F931F932FB7F894C090CD05D09063
:10448000CE05E090CF05F090D0052FBF97018601B3
:10449000061B170B280B390BC616D706E806F906BC
:1044A00018F0C901B80106C0C901B801615071090D
:1044B000810991091F910F91FF90EF90DF90CF90AC
:1044C0000895CF92DF92EF92FF920F931F932FB731
:1044D000F8944091CD055091CE056091CF05709133
:1044E000D0052FBF6A017B01EE24FF248C0120E060
:1044F00030E0C016D106E206F30610F4415051092F
:104500009A01281B390BC9011F910F91FF90EF9061
:10451000DF90CF9008952FB7F8948091CD059091BA
:10452000CE05A091CF05B091D0052FBF0895E091A1
:104530009503F0919603309749F082E08093A603AB
:104540000480F581E02D86EA93E009950E948B2294
:104550009093AE038093AD0308951F920F920FB610
:104560000F9211248F939F93AF93BF9380919703E2
:10457000811113C08091CD059091CE05A091CF05FA
:10458000B091D0054196A11DB11D8093CD059093AA
:10459000CE05A093CF05B093D005BF91AF919F9169
:1045A0008F910F900FBE0F901F90189520911501BD
:1045B000222321F02091930327FD04C0FC013296B1
:1045C000089619C0262F2695269526952E31C0F4DB
:1045D000FC01E20FF11D677081E090E001C0880FDF
:1045E0006A95EAF7809592818923828308953196AE
:1045F000E817F90729F020812613F9CF1082F7CFA9
:10460000089520911501222321F02091930327FD85
:1046100005C0FC0132962FEF30E019C0262F2695F9
:10462000269526952E3120F5FC01E20FF11D6770CD
:1046300081E090E001C0880F6A95EAF79281892BAA
:10464000828308952F3F39F03F5F363041F041912A
:104650004613F8CF0DC04111F7CF232FF5CF2F3FD1
:1046600039F0FC01E20FF11D27FDFA9562830895F0
:104670000895CF9384E090E00E94E72EC82F81E256
:1046800090E00E94E72E2C2F30E0A901582BCA01A0
:10469000CF91089580E090E00E94F52E21E08F3EBA
:1046A0009E4F09F020E0822F08956FEE7EEF80E0AC
:1046B00090E00E94292F60E082E090E00E940B2FA2
:1046C00060E083E090E00E940B2F1092C9051092E9
:1046D000CA051092CB051092CC0560E084E090E012
:1046E0000E940B2F60E081E290E00E940B2F60E0BF
:1046F00085E090E00E940B2F60E086E090E00E9451
:104700000B2F6FEF87E090E00E940B2F40E050E00E
:10471000BA0188E090E00E941D2F60E08DE090E0FB
:104720000E940B2F40E050E0BA0188E190E00E9427
:104730001D2F60E087E190E00E940B2F40E050E0E9
:10474000BA018CE190E00E941D2F60E080E290E0D1
:104750000E940B2F10928103109282031092830308
:104760001092840384E080618093810340918103EF
:104770005091820360918303709184038FE090E0F5
:104780000E941D2F40E050E0BA0183E190E00C94BC
:104790001D2F8091C80581111092C8050895909130
:1047A000C7058091D205892B2091C605982F922BA1
:1047B000909332058091C8058823D9F0892B809386
:1047C000320580911501882331F08091930387FF92
:1047D00002C08EE101C086E0E4E3F5E090E08150A4
:1047E00028F021912223D9F39F5FF9CF91110E94E4
:1047F000C923E0919503F09196033097A9F0809139
:104800001501882359F08091930387FF07C0809199
:1048100032058093330585E0809332050280F38171
:10482000E02D82E395E009940895BF92CF92DF9244
:10483000EF92FF920F931F93CF93DF938C01C09061
:10484000C905D090CA05E090CB05F090CC058091C9
:10485000C1059091C205A091C305B091C405C82AB5
:10486000D92AEA2AFB2ACFE1D0E0D701C6010C2ED3
:1048700004C0B695A795979587950A94D2F780FFBF
:1048800007C0BC2EB8018C2F0E943A0D019719F475
:10489000219758F7B12C8B2DDF91CF911F910F915C
:1048A000FF90EF90DF90CF90BF900895CF93DF936C
:1048B000EC010E941524BE010E943A0DDF91CF91B8
:1048C0000895292F220F920F990F890F682F66954F
:1048D00066956695982F977085E0689FB0011124C2
:1048E00040E050E080E0FA01E60FF71FE657FA4F8C
:1048F000208130E0092E02C0369527950A94E2F710
:1049000021703327042E01C0220F0A94EAF7822B6C
:104910004F5F5F4F4530510531F70895292F220F22
:10492000920F990F890FA82FA695A695A695877027
:1049300051E001C0550F8A95EAF785E0A89FD001A4
:10494000112420E030E070E0F901EA0FFB1FE65788
:10495000FA4F4081CB01022E02C0969587950A94AA
:10496000E2F78170992781958427852384278083A6
:104970002F5F3F4F2530310539F708950E94B30F5F
:104980006093C1057093C2058093C3059093C405DD
:104990000C94232C0F931F9341E050E060E070E0F3
:1049A00004C0440F551F661F771F8A95D2F74095A4
:1049B0005095609570958091C1059091C205A09128
:1049C000C305B091C4058A019B01082319232A233A
:1049D0003B23C901B8011F910F910C94BE24209173
:1049E000C505809582238093C505982F977079F42B
:1049F00030E0482F082E000C550B2417350739F0EE
:104A00008595859585950E94CA241092C5050895BF
:104A10000F931F9341E050E060E070E004C0440F4A
:104A2000551F661F771F8A95D2F78091C105909117
:104A3000C205A091C305B091C4058A019B01082B52
:104A4000192B2A2B3B2BC901B8011F910F910C94F4
:104A5000BE246093C9057093CA058093CB059093DB
:104A6000CC050C94232C80918905909158058917C9
:104A700019F08F5F8770FBCF08959F92AF92BF921E
:104A8000CF92DF92EF92FF920F931F93CF93DF931A
:104A90006C0180911601C82FCC0FCC0FC80FD5E048
:104AA000DC0FD13308F0D0E360910D066695669572
:104AB00080910106909102060E949D1E182F80E4AD
:104AC000810F0E941B1E90E8F92EF80E812F0E9484
:104AD0001B1E20E8922E980ECD1700F5AC2EB12C9F
:104AE000F501E35CFC4F8081909117019823A1F0C0
:104AF00060910A0670910B0680910C06E12E0C2F36
:104B0000292D4F2DF60109950E94A81E462F282F0A
:104B1000672FC5010E94CD1DCF5FDECF81E0D0336E
:104B200008F080E0DF91CF911F910F91FF90EF90FF
:104B3000DF90CF90BF90AF909F9008956F927F923B
:104B40008F929F92AF92BF92CF92DF92EF920F938C
:104B50001F93CF93DF934C0180911601C82FCC0F88
:104B6000CC0FC80FD5E0DC0FD13308F0D0E3609153
:104B70000D06669580910106909102060E949D1E89
:104B8000182FCD1708F044C06C2E712CF301E35C94
:104B9000FC4F9081809117018923C1F1F301EE0F41
:104BA000FF1FE352FD4FC080D12C80E7C81AD10807
:104BB000F301EE0FFF1FE252FD4FA080B12CE0E2A7
:104BC000AE1AB108CC9C9001CD9C300D300D112453
:104BD000AA9CC001AB9C900D900D1124820F931FD5
:104BE0000E943C1E082F60910A0670910B0680916E
:104BF0000C06E12E9501A601F40109950E94A81E5C
:104C0000462F282F672FC3010E94CD1DCF5FB9CF3C
:104C100081E0D03308F080E0DF91CF911F910F91B8
:104C2000EF90DF90CF90BF90AF909F908F907F904C
:104C30006F900895CF92DF92EF92FF920F931F93A0
:104C4000CF93DF937C0180911601C82FCC0FCC0F3E
:104C5000C80FD5E0DC0FD13308F0D0E360910D062A
:104C6000669580910106909102060E949D1E182F64
:104C7000CD1778F5CC2ED12CF601E35CFC4F90815A
:104C800080911701892319F1F601EE0FFF1FE252FF
:104C9000FD4F208130E020523109F601EE0FFF1F59
:104CA000E352FD4F408150E04057510960910A06A0
:104CB00070910B0680910C06012FF70109950E9457
:104CC000A81E462F282F672FC6010E94CD1DCF5F3B
:104CD000CFCF81E0D03308F080E0DF91CF911F91FA
:104CE0000F91FF90EF90DF90CF900895DF92EF92B9
:104CF000FF920F931F93CF93DF937C019091160146
:104D0000C92FCC0FCC0FC90FD5E0DC0FD13308F081
:104D1000D0E360910D0666956695809101069091AD
:104D200002060E949D1ED82ECD17F0F40C2F10E025
:104D3000F801E35CFC4F808190911701982391F07A
:104D400060910A0670910B0680910C062D2D4C2F58
:104D5000F70109950E94A81E462F282F672FC8012A
:104D60000E94CD1DCF5FE0CF81E0D03308F080E01E
:104D7000DF91CF911F910F91FF90EF90DF900895F9
:104D8000CF93DF93EC0180EEFE01099581EEFE01E9
:104D9000DF91CF910994CF92DF92FF920F931F93EF
:104DA000CF93DF931F92CDB7DEB7F82E8B01998397
:104DB0000E943B14998181111CC0CF2CD92E011562
:104DC0001105B1F08091E80085FD0AC08091E800EE
:104DD0008E778093E8000E943B14882381F309C0FA
:104DE000F60181916F018093F10001501109E7CF25
:104DF00080E00F90DF91CF911F910F91FF90DF9096
:104E0000CF9008951F93CF93DF93CDB7DEB7AA97C6
:104E10000FB6F894DEBF0FBECDBFE9EFF5E088E036
:104E20008E0F9091F10091938E13FBCF8091FA0534
:104E3000833009F460C030F4813071F0823009F4BD
:104E40009CC0B3C08A3009F488C08B3009F46BC0B1
:104E5000893009F0AAC020C08091F905813A09F093
:104E6000A4C08091E800877F8093E8008091FD05D1
:104E70009091FE05892B21F460E285ED95E003C059
:104E800060E080E090E070E00E94FF158091E80013
:104E90008B778093E80089C08091F905813209F011
:104EA00084C08091FD059091FE05029708F07DC0B9
:104EB0008091E800877F8093E8008091E80082FD80
:104EC00005C08091F7058111F8CF6FC02091F300E4
:104ED0008091F20090E0922B029729F48091F100EA
:104EE0008B7F813021F48091F1008093D4058091F3
:104EF000E8008B7756C08091F905813A09F055C0DA
:104F00008091FD059091FE05892B09F04EC080919E
:104F1000E800877F8093E8008091E80080FFFCCF65
:104F20008091150139C08091F9058132F1F58091A8
:104F3000FD059091FE05892BC1F58091E800877FE2
:104F40008093E8000E946D148091FB058093150109
:104F50001092D2050E943E2C28C08091F905813222
:104F600021F58091E800877F8093E8000E946D140E
:104F70008091FC058093D30518C08091F905813A92
:104F8000A1F48091E800877F8093E8008091E80099
:104F900080FFFCCF8091D3058093F1008091E800E1
:104FA0008E778093E8000E946D148091E80083FF63
:104FB000D6C18091F9059091FA05492F50E04A3009
:104FC000510508F0CCC1FA01EB57FF4F0C94572F55
:104FD000803821F0823809F0C2C108C08091F505FF
:104FE0009091F605992389F082600FC08091FD05AC
:104FF0008F70873008F0B3C18093E9008091EB0097
:1050000085FB882780F91092E9009091E800977F4E
:105010009093E8008093F1001092F10074C1282F62
:105020002D7F09F09CC1882319F0823061F097C16F
:105030008091FB05813009F092C1933009F080E046
:105040008093F6052EC08091FB0581112AC08091C6
:10505000FD058F702FEF280F263008F080C1809358
:10506000E9002091EB0020FF1CC0933021F48091D7
:10507000EB00806214C09091EB0090619093EB0084
:1050800021E030E0A90102C0440F551F8A95E2F7E4
:105090004093EA001092EA008091EB0088608093D0
:1050A000EB001092E9008091E800877F2FC1811109
:1050B00056C11091FB051F778091E3008078812B0A
:1050C0008093E3008091E800877F8093E8000E944E
:1050D0006D148091E80080FFFCCF8091E300806830
:1050E0008093E300111102C082E001C083E080934D
:1050F000F70535C18058823008F031C18091FB0539
:105100009091FC058C3D53E0950779F583E08A8307
:105110008AE289834FB7F894DE01139620E03EE0DF
:1051200051E2E32FF0E050935700E49120FF03C0D9
:10513000E295EF703F5FEF708E2F90E0EA3010F055
:10514000C79601C0C0968D939D932F5F243149F778
:105150004FBF8091E800877F8093E8006AE270E0AB
:10516000CE0101960E94FF15BDC04091FD055091F2
:10517000FE05292F332723303105B9F06CF4213097
:10518000310509F4FBC02230310509F0E8C08BE39A
:1051900090E0E2E3F5E054C02132310509F433C078
:1051A0002232310509F43CC0DAC0992781309105DB
:1051B000D1F05CF4892B09F0D2C0E5EBF5E0E49185
:1051C0008E2F90E0E5EBF5E038C08230910599F044
:1051D000039709F0C4C0EFE7F5E0E4918E2F90E06B
:1051E000EFE7F5E02AC0EDE9F5E0E4918E2F90E0DD
:1051F000EDE9F5E022C0E5E8F5E0E4918E2F90E0DE
:10520000E5E8F5E01AC04115510509F4BCC041308C
:10521000510509F0A4C089E090E0EDE5F5E010C08B
:105220004115510509F4B4C04130510509F097C04A
:1052300080EC90E0E2E3F4E003C0009709F48FC053
:105240002091E800277F2093E8002091FF0530910E
:1052500000062817390708F4C90140E0009789F1D2
:105260002091F705222309F43DC02530D9F1209182
:10527000E80023FD37C02091E80022FD2FC02091D7
:10528000E80020FFEBCF4091F3002091F20030E0E6
:10529000342B009759F02830310540F44491409365
:1052A000F100319601972F5F3F4FF3CF41E0283057
:1052B000310509F040E02091E8002E772093E800C6
:1052C000CDCF4111CDCF0AC08091F705882351F091
:1052D000853041F08091E80083FD04C08091E800B2
:1052E00082FFF2CF8091E8008B778093E80037C08F
:1052F0008038A9F58091E800877F8093E80080914D
:10530000F8058093F1008091E8008E778093E800A3
:105310000E946D1424C0811122C01091FB0512302F
:10532000F0F48091E800877F8093E8001093F805FF
:105330000E946D14111106C08091E30087FD02C028
:1053400081E001C084E08093F70542E061EC81E0F8
:105350000E948C1442E261EC82E00E948C148091E5
:10536000E80083FF1AC08091E800877F8093E800FF
:105370008091EB0080628093EB000FC082E190E0AF
:10538000EDE6F5E05DCF89E090E0E4E4F5E058CFAC
:1053900080E490E0E2EFF4E053CFAA960FB6F894E1
:1053A000DEBF0FBECDBFDF91CF911F9108958091D9
:1053B000570582958F7009F054C080915405882359
:1053C00009F44FC080918905A0915805609152055C
:1053D000709153054091550550915605B6E08A17D6
:1053E00009F43FC090E041155105C1F17F3F11F430
:1053F0006F3FA1F1B89FF001B99FF00D1124E75A5A
:10540000FA4F218172132AC02081621327C02281A2
:10541000211124C0238134812417350710F4215031
:105420003109241B350B283C3105C0F42091570568
:105430002F7020612093570526E0289FF001299FB7
:10544000F00D1124E25AFA4F80818F7080618083C1
:1054500082E595E00E94FC020C943325019687704A
:10546000BECF08950E945624292F2F7092959F70C9
:10547000E92FF0E03297EE30F105B8F4E157FF4F35
:105480000C94572F803F99F018F4883E70F40FC0A9
:10549000843F59F40CC0883E50F0813F31F407C07E
:1054A000822F869586958695089580E0089581E0FF
:1054B0000895BF92CF92DF92EF92FF920F931F93C6
:1054C000CF93DF93CDB7DEB761970FB6F894DEBF09
:1054D0000FBECDBF8C0185E0F801DE011D96019065
:1054E0000D928A95E1F7D8013C9111962C91119774
:1054F0001296EC9012971396CD90DC9014975091E1
:10550000520560915305809155059091560500977D
:1055100009F44FC16F3F19F45F3F09F44AC1B090DD
:105520005405BB2009F4ECC040915705C816D906B4
:1055300028F0F601E81BF90BCF0104C08095909587
:105540008C0D9D1DFF24F394883C910548F0F12CAF
:10555000407F09F09FC082E595E00E94FC0221C1D6
:10556000842F807F09F044C0621312C0531310C00F
:10557000E1100EC04F7040614093570582E595E001
:105580000E94FC0280915705D80115968C932EC07D
:10559000CD2819F12F3F11F43F3FF9F0FE2CE11017
:1055A0001CC0809189054091580556E0841709F484
:1055B00058C090E0589FF001599FF00D1124E75A10
:1055C000FA4F6181261306C06081361303C06281E1
:1055D000611103C001968770E9CFFE2CEE2009F41B
:1055E00021C180915705816080935705F12C1AC124
:1055F00062130AC0531308C0E11006C0809157051A
:10560000D80115968C93B0C03D872E878D859E85D9
:105610000E94322A8823D1F1EE20C1F12091570552
:10562000822F82958F7090E0029774F080915205DE
:105630009091530598878F831986DB86CA862C87BD
:10564000CE0107960E94FC0286E0F801A2E5B5E0D3
:1056500001900D928A95E1F70E94D729FF24F394D7
:10566000E1C03D872E878D859E850E945624292F77
:1056700022952F7030E0223031050CF0C7C09F70AA
:1056800009F0C1C0805E883008F4CCC0C8010E9417
:10569000FC02E4CF621314C0531312C0E11010C017
:1056A00080915705F8018583C8010E94FC0286E0BD
:1056B000E2E5F5E0DF011D928A95E9F7FB2CB2C027
:1056C0003D872E878D859E850E94322A8823F1F2A0
:1056D000EE20E1F220915705822F82958F7090E0A5
:1056E00002970CF4B1CF80915205909153059A83A3
:1056F00089831B82DD82CC822E83CE010196A2CFCC
:10570000C816D90638F0C81AD90AB8ECCB16D10495
:1057100050F007C0809590958C0D9D1D883C91059B
:1057200010F0F12C3EC0FE2CEE2009F4AFCF621336
:1057300027C0531325C02091570520FD18C0822F84
:1057400082958F70482F50E04115510581F0F80186
:1057500025834F30510541F08F5F982F9295907FB0
:10576000822F8F70892B8583C8010E94FC0286E0FE
:10577000F801A2E5B5E001900D928A95E1F752C0DB
:105780003D872E878D859E850E94322A81115CCFB0
:1057900080915705816080935705C8010E94FC02E3
:1057A00041C0E2E5F5E086E0DF011D928A95E9F768
:1057B00039C0EE2009F46ACF3D872E878D859E85FE
:1057C0000E94322AF82E882309F460CF86E0F8017F
:1057D000A2E5B5E001900D928A95E1F7809152051E
:1057E000909153050E94562492959F70963041F4F3
:1057F00080910F0691E0892780930F0690930E0603
:105800000E94D7290FC081113DCF0CC02430310533
:105810000CF03CCF9F7009F435CFF8019581907F53
:1058200009F030CF8F2D61960FB6F894DEBF0FBE12
:10583000CDBFDF91CF911F910F91FF90EF90DF903F
:10584000CF90BF9008951092C7051092C6050E9490
:10585000CF23E6EAF3E086E0DF011D928A95E9F7BF
:105860001092AC031092D1050E94972280E090E044
:105870000E94A91D80E090E00C94931D8091150179
:10588000882331F08091930387FF02C08EE101C02D
:1058900086E0E4E3F5E0DF011D928A95E9F70C94D8
:1058A000232C882341F080959091D2058923809301
:1058B000D2050C94CF230895882339F09091D20516
:1058C000892B8093D2050C94CF230895882309F463
:1058D00063C0823869F40E94BF1D81FF5DC069E327
:1058E00082E395E00E9401230E94CF2369E30EC06A
:1058F000833891F40E94BF1D80FF4EC063E582E3B0
:1059000095E00E9401230E94CF2363E582E395E0A6
:105910000E94D6220C94CF23843869F40E94BF1DC4
:1059200082FF3AC067E482E395E00E9401230E946F
:10593000CF2367E4EBCF9CEF980F913A10F4682FD8
:10594000E5CF90E2980F983088F4877021E030E03E
:10595000A90102C0440F551F8A95E2F7CA0180953C
:105960009091D20589238093D205D4CF9BE5980FDF
:10597000933020F480E090E00C94A91D98E5980FF6
:10598000973120F480E090E00C94931D803F20F04C
:105990000E94DD200C9497220895CF93C82F0E9477
:1059A000E02CC93349F42FEF87EE93E0215080407B
:1059B0009040E1F700C000008C2FCF910C94662C32
:1059C000882309F416C18238B1F40E94BF1D81FDFD
:1059D00010C169E382E395E00E9401230E94CF2376
:1059E0002FEF41EE54E0215040405040E1F700C01D
:1059F000000069E317C08338D9F40E94BF1D80FD01
:105A0000F8C063E582E395E00E9401230E94CF2362
:105A10008FEF91EE24E0815090402040E1F700C0EC
:105A2000000063E582E395E00E94D6220C94CF2328
:105A30008438B1F40E94BF1D82FDDBC067E482E3BD
:105A400095E00E9401230E94CF234FEF51EE84E0A6
:105A5000415050408040E1F700C0000067E4E2CFD1
:105A60009CEF980F913A30F4682F82E395E00E9402
:105A70000123DCCF90E2980F983080F4877021E00A
:105A800030E0A90102C0440F551F8A95E2F7CA0110
:105A90009091D205892B8093D205C8CF9BE5980FB2
:105AA000933070F4853A29F0863A31F083E890E03B
:105AB00005C081E890E002C082E890E00C94A91D46
:105AC00098E5980F973108F08EC0883A09F445C0E0
:105AD000893A09F445C08A3A09F445C08B3A09F479
